:020000040800F2
:10000000083D00208D01000847170008F10F000887
:1000100045170008050C0008B52A0008000000007C
:1000200000000000000000000000000001010008C6
:10003000C30D00080000000035010008FD4600085F
:10004000A7010008A7010008A7010008A7010008F0
:10005000A7010008A7010008A7010008A7010008E0
:10006000A7010008A7010008C50D00081D0C000825
:100070001F0C0008210C0008230C0008270C0008A6
:10008000290C00082B0C0008A7010008A701000894
:10009000A7010008A7010008A7010008A7010008A0
:1000A000A7010008A7010008A7010008A701000890
:1000B000A7010008A7010008A7010008A701000880
:1000C000A7010008A7010008A7010008A701000870
:1000D000A7010008D5290008A7010008A70100080A
:1000E000A7010008A7010008A7010008DFF80CD04D
:1000F00000F004FB00480047712C0008083D002078
:100100001A4B19680868B0E8F00F80F309884FF0BF
:10011000000080F311884EF00D0E704700000000C3
:1001200003480068006880F3088862B600DF00BFFB
:1001300008ED00E0EFF309800C4B1A6820E9F00F9E
:10014000106008B54FF0BF0080F3118804F098FAF2
:100150004FF0000080F31188BDE808401968086876
:10016000B0E8F00F80F30988704700BF1800002046
:10017000EFF311804FF0BF0181F31188704780F3D6
:1001800011887047EFF305807047000006488047EC
:1001900006480047FEE7FEE7FEE7FEE7FEE7FEE76C
:1001A000FEE7FEE7FEE7FEE705280008ED00000891
:1001B00040EA01039B0703D009E008C9121F08C0E9
:1001C000042AFAD203E011F8013B00F8013B521E69
:1001D000F9D27047D2B201E000F8012B491EFBD2E0
:1001E00070470022F6E710B513460A460446194642
:1001F000FFF7F0FF204610BD2DE9FE4F81EA030412
:1002000004F0004421F0004100944FF0000B23F073
:10021000004350EA01045ED052EA03045BD0C3F30A
:100220000A54C1F30A552C44A4F2F3340194A0FB00
:100230000254C1F3130141F48011C3F3130343F4D7
:10024000801301FB024400FB034E840A970A44EA30
:10025000815447EA8357A4FB076802958D0A05FB82
:1002600007854FEA932C04FB0C542705029D4FEAA7
:10027000065847EA1637B5EB08056EEB070C870EF4
:10028000920E47EA811742EA8312A7FB0201B6EBFE
:100290000B0164EB00042B0D43EA0C335E1844EBB6
:1002A0001C50DA465146E7FB0201C5F313044FEA3E
:1002B0000B3343EA14534FEA0432019C43EA06032A
:1002C000A4F10C040294009CCDE900B400F083F882
:1002D00003B0BDE8F08F00200146F9E70EB5C10F6D
:1002E00080EAE0700844CA07002140F233438DE8F9
:1002F0000E000A460B4600F06EF803B000BD0EB5C6
:1003000040F2334102910021CDE900110A460B462B
:1003100000F061F803B000BD20F00040C10DC0F353
:10032000160040F400007F2901DA0020704796296A
:1003300003DCC1F19601C840704796398840704788
:10034000C1F30A5210B5C1F3130140F2FF3341F477
:1003500080119A4201DA002010BD40F233439A42E4
:10036000A2F2334203DC524200F016F810BD904076
:1003700010BD00F0004230F000400AD0C10D01F580
:100380006071C0F3160042EA0151C20840071143F0
:100390007047002001467047202A04DB203A21FAEA
:1003A00002F00021704721FA02F3D040C2F120028E
:1003B000914008431946704710B5141E73F10004AC
:1003C00008DA401C41F1000192185B411A4301D147
:1003D00020F0010010BD2DE9F04D92469B4611B171
:1003E000B1FA81F202E0B0FA80F22032904600F0D9
:1003F00097F904460F4640EA0A0041EA0B015346CA
:100400005A46084313D0114653EA010019D0C8F1E7
:1004100040025046FFF7C0FF05460E46504659467B
:10042000424600F07DF9084305D0012004E0204653
:100430003946BDE8F08D0020054346EAE0762C43BE
:1004400037430A986305E40AA0EB08000022FD0A7E
:1004500044EA47540A3002D500200146E9E7010585
:1004600010196941DDE9084500196941BDE8F04D01
:10047000A2E72DE9FE4F804681EA0300C00F0C463B
:10048000009021F0004123F00045B8EB0200A941A3
:1004900005D24046214690461C460B46024623F0B4
:1004A0000040104347D0270DC7F30A00C3F30A5199
:1004B0000290401A019040286BDAC3F3130040F415
:1004C000801B0098924620B10023D2EB030A63EB15
:1004D0000B0B01985946C0F14002504600F020F93C
:1004E00006460D4650465946019A00F028F910EB91
:1004F00008006141002487EA115284EAE7731A4335
:1005000040D0009A62B3019A012A4FEA075215DCE3
:10051000001B61EB02014FF0004202EA0752CDE9F5
:100520000042001C41F5801132462B46FFF753FF75
:1005300003B0BDE8F08F40462146F9E7001B61EBB0
:100540000201001C41F5801300185B412018A2F540
:10055000001747EB030140EAD570B6196D4111E071
:100560006D084FEA360645EAC0754FEA0752001B90
:1005700061EB0201001C41F5801149084FEA30008F
:100580000019514132462B4603B0BDE8F04FFFF74A
:1005900013BF0098012240000023D0EB020263EB5E
:1005A000E073009821464FEAE074B8EB000061EB7D
:1005B0000401E9E783F000435BE781F0004158E77D
:1005C0002DE9F04D81EA030404F0004B21F00045D1
:1005D00014464FF0000A23F0004150EA050220D0F3
:1005E00054EA01021DD0C5F30A570246C5F31303AE
:1005F000C1F31300C1F30A5640F4801543F480138D
:10060000A7EB0608101BD64608F2FD3873EB050071
:1006100002D308F1010801E092185B41B8F1000F24
:1006200003DA00200146BDE8F08D00204FF4801170
:10063000064684460EE0171B73EB050705D3121B15
:1006400063EB050306434CEA010C49084FEA30000E
:1006500092185B4150EA0107EDD152EA030012D033
:1006600082EA040083EA0501084305D0101BAB4170
:1006700006D20122002306E000224FF0004302E0F0
:100680006FF0010253101AEB06004CEB085110EB0F
:100690000A0041EB0B01BDE8F04DFFF78DBE70B5D0
:1006A00021F0004303430CD0C1F30A550024D5EBDD
:1006B000040564EB0403D617AD1AB34102DB002036
:1006C000014670BD201841EB025170BD30B5041ECB
:1006D00071F1000404DB4FF00044404264EB01017F
:1006E000141E73F1000405DB1C464FF00043524218
:1006F00063EB0403994208BF904230BD064C074D9E
:1007000006E0E06840F0010394E8070098471034E1
:10071000AC42F6D3FFF7EEFCF07600081077000845
:10072000202A04DB203A00FA02F1002070479140B1
:10073000C2F1200320FA03F3194390407047202AA6
:1007400006DBCB17203A41FA02F043EAE07306E0F9
:1007500041FA02F3D040C2F1200291400843194609
:1007600070472DE9F04D00231A461B1A8A4103DB1E
:1007700000200146BDE8F08DC1F30A52C1F3130118
:1007800041F480154FF0000BD10702D100186D41E4
:10079000521E0027044640F2FF11384601EB620A60
:1007A0003E468046024600204FF48011FFF7F4FDDC
:1007B000C2197141BB1846EB0100B4EB030C75EB99
:1007C000000C04D3E41A65EB000517460E46241905
:1007D00008F101006D4180463428E3DDF91946EB4C
:1007E0000600091BA84103D24FF0FF32134601E077
:1007F000002213461BEB070046EB0A51BDE8F04D03
:10080000FFF7DABD70B58C1810F8015B15F007031F
:1008100001D110F8013B2A1106D110F8012B03E099
:1008200010F8016B01F8016B5B1EF9D12B0705D4A1
:100830000023521E0DD401F8013BFAE710F8013BEA
:10084000CB1A921C03E013F8015B01F8015B521E06
:10085000F9D5A142D8D3002070BD0029816802D00B
:1008600041F0010101E021F00101816070470000C9
:100870002DE9F04786B000F001F900F0A9F8002258
:100880002121022003F04CFF49494A4E08603046BE
:1008900000F0C8F8484D284600F0C4F801244FF491
:1008A000C0278DF804404FF460284FF000094FF046
:1008B000030A00978DF80540CDE902898DF810A054
:1008C0006946304600F00CF9072301220821304622
:1008D00000F02AF9072302220921304600F024F90A
:1008E000072303221121304600F01EF90121304672
:1008F00000F064F88DF8044000978DF80540CDE9CC
:1009000002898DF810A06946284600F0E9F807230F
:1009100001220A21284600F007F9072302220B21B1
:10092000284600F001F9072303220C21284600F095
:10093000FBF80121284600F097F8012000F054F957
:1009400001213046FFF789FF304600F027F9304695
:1009500000F0BFF80028FAD1304600F03FF93046E9
:1009600000F0B0F80028FAD101212846FFF775FF02
:10097000284600F013F9284600F0ABF80028FAD119
:10098000284600F02BF9284600F09CF80028FAD100
:100990000121304600F018F9022000F0DDF90028AE
:1009A000FAD0022000F042F906B0BDE8F08700005E
:1009B00054020020002401400028014000298168E1
:1009C00002D041F4807101E021F4807181607047B0
:1009D00010B5114C8CB0204600F04CF90F48009037
:1009E0000F480021CDE901010320CDE9030180205A
:1009F000059080000690800007902020089000025B
:100A0000CDE909016946204600F0BEF901212046E2
:100A100000F024F90CB010BD080002404C24014045
:100A2000C83800200D4910B5884202D10121441573
:100A30000AE00B49884202D10121041504E009496A
:100A400088420AD10121CC03204601F05FFB2046F9
:100A5000BDE81040002101F059BB10BD0024014049
:100A600000280140003C01400029816802D041F487
:100A7000801101E021F480118160704708B54FF4C6
:100A8000004001F021FB0121084601F027FB012174
:100A90004FF4C36001F02EFB00208DF8030003200B
:100AA000ADF800006946054800F02CFA0720ADF8C3
:100AB00000006946024800F025FA08BD000C01401C
:100AC00000100140014600208968490700D5012037
:100AD0007047014600208968090700D5012070474A
:100AE00010B542680E4B0C791A400B6842EA04229A
:100AF0001343436082680B4B1A40D1E902432343FE
:100B00004C7942EA440213438360C26A097C22F4AE
:100B10007002491EC9B242EA0151C16210BD000013
:100B2000FFFEF0FFFDF7F1FF70B5072609290AD98E
:100B3000C568A1F10A0404EB4404A640B543A340F0
:100B40001D43C56007E0056901EB4104A640B543BC
:100B5000A3401D4305611F23072A09D2446B521E7F
:100B600002EB820293409C4391400C43446370BD6E
:100B70000D2A09D2046BD21F02EB820293409C43E0
:100B800091400C43046370BDC46A0D3A02EB8202CB
:100B900093409C4391400C43C46270BD816841F016
:100BA00008018160704700000146064810B5002327
:100BB0001A46006803F0D5FD08B1002010BD4FF0C3
:100BC000FF3010BD540200200029816802D041F49A
:100BD000A00101E021F4A00181607047816841F02B
:100BE000040181607047000005490028086802D0B0
:100BF00040F4000001E020F40000086070470000AD
:100C000008240140FEE708B500216A46435C5354BE
:100C1000491CC9B20429F9D3009808BD7047704730
:100C2000704703F015BB704770477047C10002D58D
:100C30000249086070470249486070470404024056
:100C400000000240C10002D5024908607047024915
:100C50004860704704040240000002400029016817
:100C600002D041F0010102E04FF6FE721140016036
:100C70007047000001684FF6FE72114001600021CC
:100C8000016041608160C1603149314A0839904258
:100C900003D1486840F00F0006E02D4A143290421C
:100CA00004D1486840F0F00048607047284A283274
:100CB000904203D1486840F47060F5E7244A3C3222
:100CC000904203D1486840F47040EDE7204A50322A
:100CD000904203D1486840F47020E5E71C4A643232
:100CE000904203D1486840F47000DDE7184A78323A
:100CF000904203D1486840F07060D5E7154A111F53
:100D0000904203D1086840F00F0006E0114A143207
:100D1000904204D1086840F0F000086070470D4A26
:100D20002832904203D1086840F47060F5E7094A20
:100D30003C32904203D1086840F47040EDE7054A28
:100D400050329042EAD1086840F47020E5E7000094
:100D5000080002400804024002460020D10001D5EC
:100D6000034900E003490968114200D0012070479F
:100D70000004024000000240002A026801D00A4339
:100D800000E08A430260704730B5026847F6F073AE
:100D90009A430C6A8B682343D1E904452C432343CF
:100DA0008C692343CC6923434C6A23438C6A2343D5
:100DB00013430360CA6842600A6882604968C16080
:100DC00030BD704701F033BF014908607047000033
:100DD00014040140064A014600201268044B0A40F0
:100DE00014331B680B4202D0002A00D00120704748
:100DF0000004014030B51A4A8379016853B313687F
:100E00008B431360111D0B680468A3430B600179C9
:100E100011440B68046823430B60114B08331968B5
:100E20000468A14319601C1D21680568A94321605D
:100E30004179102905D011440A68006802430A600C
:100E400030BD1968026811431960216800680143C8
:100E5000216030BD0079104402688A43026030BDD1
:100E6000000401407CB50024264640254023602232
:100E700000212020009600F0CDFCC4F10700CDE950
:100E8000005643B240212022084601F097FA00F0B4
:100E9000EFFD00214FF6FF720020401C0004000C03
:100EA000FBD0491C89B29142F6D3641C24B2102CA9
:100EB000DCDB6FF03F04012600F078FCCDE9005642
:100EC0004021002362B2084601F078FA00F0D0FD1C
:100ED000241D24B2812CEFDB7CBD000010B58A07F5
:100EE00021F003040649120F21440F238C6893401C
:100EF0009C438C608B68904003438B6010BD000066
:100F000000000140F0B5CC78002204F00F03E406A5
:100F100001D58C7823430C784FF00F0C14F0FF0FA1
:100F20004FF0010E1BD005680E880EFA02F4264021
:100F3000A64210D196000CFA06F725EA070703FA35
:100F400006F5CE783D43282E02D0482E02D002E08E
:100F5000446100E00461521C082AE5D305600A8858
:100F6000FF2A1CD94468002202F108060EFA06F591
:100F70000E882E40AE420ED196000CFA06F7BC4306
:100F800003FA06F7CE783C43282E00D14561CE788F
:100F9000482E00D10561521C082AE5D34460F0BDFB
:100FA0000246002092680A4200D001207047416149
:100FB0007047016170470AB1016170474161704734
:100FC00001484068000C7047C8380020014800689C
:100FD000000C7047C83800200148006880B2704794
:100FE000C83800200148406880B27047C8380020E7
:100FF000FEE72DE9FC479A4691460F46804600F0F1
:10100000D5FB012410230C2200211820009400F0AD
:10101000BBFD10230D2200212820009400F0B4FD18
:101020001023082200213820009400F0ADFD00229A
:10103000102311464820009400F0A6FD1023012241
:1010400000215820009400F09FFD002110230E2263
:101050000846009400F098FD10230F220021702014
:10106000009400F091FD00251023692229461720E5
:10107000009500F0BDFC3F237F2210210020009549
:1010800000F0B6FC27237F2219460020009400F0D0
:101090006FFC3F231A4610211846009400F068FCAC
:1010A00018223F2310211046009400F061FC5522C5
:1010B0003F2310211046009400F05AFC1026CDE981
:1010C00000640423424614211C2000F00BFECDE9ED
:1010D000006404233A462B211C2000F003FECDE9D6
:1010E000006404234A4614215D2000F0FBFDCDE995
:1010F0000064042352462B215D2000F0F3FD1023F1
:101100001A4614210420009500F03EFD1023112200
:101110002B210420009500F037FD1023122214210A
:101120004220009500F030FD102313222B21422095
:10113000009500F029FDBDE8FC4700F099BC0000D7
:1011400010B5264C2246217890785378012904D096
:1011500002291AD003293DD136E001283AD00228CD
:1011600031D11E48012B82890189C07801D0022B20
:1011700003D0BDE8104001F06DBB638A228AE1898B
:101180006089BDE81040FFF734BF01280BD002286A
:1011900019D1012B0BD0022B0FD000F007FBBDE8BB
:1011A000104001F023BABDE8104000F037BE00F057
:1011B000FDFA01F01BFA012004E000F0F7FA01F05B
:1011C00051F90220E07110BD0128FCD1BDE81040AA
:1011D00000F055BEBDE8104000F0BCBF0E0200207C
:1011E00010B50446407880282AD12278A11C1548E1
:1011F000FEF7DEFF20781C2822D81248FFF703FDF7
:10120000114C60600F48001DFFF7FDFCA0600D4809
:101210000830FFF7F8FC20600A480C30FFF7F3FCB9
:10122000606108481030FFF7EEFCE06005481430BC
:10123000FFF7E9FCA06103481830FFF7E4FC2061E8
:1012400010BD0000FA330020F001002008B503F0C3
:10125000BBFC0A4C0A4D0090C821684603F07AF99D
:101260002078C007F8D02878012804D00228F3D1CC
:1012700001F0F8F8F0E701F0B9F9EDE7120200200B
:101280001502002008B50121182000F033FF0320CB
:101290008DF8020048208DF803004FF4E640ADF8C9
:1012A000000069460548FFF72DFE4EF28000ADF8BC
:1012B000000069460248FFF725FE08BD000C01400A
:1012C0000010014010B5184C21462078897801287B
:1012D00021D101291FD002291DD16078012811D008
:1012E000022818D1FFF778FE6081FFF77BFEE081CE
:1012F000FFF76CFE2082FFF763FE6082207940F0EA
:10130000080007E0E07838B1FFF766FEA081207999
:1013100040F00400207110BDFFF75EFE20812079AF
:1013200040F00200F6E700000E020020064A1146D7
:1013300010788978012805D1012903D0022901D12B
:10134000FF20D070704700000E02002008B503F0A7
:101350003BFC00906421684603F0FCF800F0AAF81A
:10136000F8E700000D498878012805D002280CD044
:1013700001200870887070470878401E10F0FF0048
:101380000870F8D10320087070474878401E10F0AC
:10139000FF004870F8D10220487070470E0200200C
:1013A00010B5064C2078022807D1A078022804D175
:1013B000002000F09FFF0020607110BD0E02002091
:1013C0000C4901228878012804D002280AD00A702A
:1013D0008A7070470878401CC0B208700328F8D99A
:1013E0000A7070474878401CC0B248700228F8D98B
:1013F0004A7070470E02002010B5064C2078022873
:1014000007D1A078022804D1012000F073FF012049
:10141000607110BD0E0200200D4A012311461078A4
:101420008978491EC9B2012805D0022808D00328AE
:1014300005D0137002E09170002900D193707047BD
:10144000917001B99370107900F0FE00107170472F
:101450000E0200200E4A0223114610788978491C9A
:10146000C9B2012806D0022809D0032801D00120E2
:101470009070704791700229FBD9937070479170FA
:10148000022900D99370107940F001001071704763
:101490000E020020064A114610788978012805D1ED
:1014A000012903D0022901D10020D070704700002B
:1014B0000E02002010B5002000F028F80A2824D2DF
:1014C000DFE800F02305080B0E1114171A1DFFF7B3
:1014D00067FF16E0FFF790FF13E0FFF79DFF10E0B6
:1014E000FFF7B8FF0DE0FFF73DFF0AE0FFF7D2FF7F
:1014F00007E0FFF7E7FE04E0FFF762FF01E0FFF718
:1015000015FFBDE81040FFF71BBE10BD2DE9F05FD1
:10151000644C4FF48046DFF89081644D4FF0010930
:101520004FF4805B771010B184F8069001E0A07949
:1015300078B380214046FFF733FD88B33146284613
:10154000FFF72EFD60B359462846FFF729FD38B353
:1015500039462846FFF724FD10B339464046FFF7C9
:101560001FFDE8B14FF400414046FFF719FDB8B147
:1015700031464046FFF714FD90B14FF40071284604
:10158000FFF70EFD60B14FF480712846FFF708FDAC
:1015900030B180214046FFF703FD01284BD07EE0AB
:1015A000FFE70A2002F0BCFF0020A0718021444622
:1015B0004046FFF7F5FC58B331462846FFF7F0FCEC
:1015C00048B359462846FFF7EBFC30B33946284666
:1015D000FFF7E6FC18B339462046FFF7E1FC00B3FD
:1015E0004FF400412046FFF7DBFCE0B131462046D6
:1015F000FFF7D6FCC8B14FF400712846FFF7D0FCC6
:10160000A8B14FF480712846FFF7CAFC88B146E0C4
:101610000120BDE8F09F0220FBE70320F9E704204A
:10162000F7E70520F5E70620F3E70720F1E70820B4
:10163000EFE70920EDE7B24631462846FFF7B0FC58
:1016400001282CD159462846FFF7AAFC012826D1AB
:1016500039462846FFF7A4FC012820D139464646E2
:101660004046FFF79DFC012819D1C1033046FFF722
:1016700097FC012813D151463046FFF791FC012811
:101680000DD141022846FFF78BFC012807D101024A
:101690002846FFF785FC012801D184F80690002038
:1016A000B7E700000E02002000100140000C0140CE
:1016B0002DE9F8431D4D2878002835D101F05AF85E
:1016C00000211B4C05F108064B1E01EBC10246F838
:1016D0002130002004EB820242F82030401C09280F
:1016E000FAD3491C0229F0DB104F0024114E4FF4AD
:1016F0007A7810372346002241460FA0009603F067
:101700004DFB47F82400641C022CF3DB032200216C
:10171000012003F005F8686020B100231A4619463D
:1017200003F0C6F801202870BDE8F8838800002087
:1017300070330020B92100086C65647365715469C9
:101740006D657200FEE7704730B50F23C2780178EF
:101750000125F2B1144A126801F1E02102F4E062BD
:10176000C2F5E062120AC2F10404D3404278A240FA
:1017700084781C401443220181F80024007800F092
:101780001F018D404009800000F1E020C0F80051A9
:1017900030BD01F01F0085404809800000F1E020C5
:1017A000C0F8805130BD00000CED00E030B40021E5
:1017B000084B0A46002003EBC004401CC0B2625430
:1017C0008028F8D3491CC9B20829F3D330BC00F0F3
:1017D0004FB900001234002010B57F2816D83F29D9
:1017E00014D80723A3EBD10301F00701C1F10704CB
:1017F0000121A140064CDBB204EBC000002AC25C10
:10180000C9B201D00A4300E08A43C25410BD0000AF
:10181000123400202DE9F0471E4690460F4605463B
:10182000DDF820900CE03C4606E04A46214628467A
:10183000FFF7D2FF641CE4B2B442F6D96D1CEDB2DE
:101840004545F0D9BDE8F04700F012B938B501219F
:10185000142000F04FFC10208DF8030003208DF8B9
:1018600002000720404CADF8000069462046FFF713
:1018700049FB08213D4DADF8001069462846FFF7A9
:1018800041FB08212846FFF794FB01212046FFF782
:1018900090FB04212046FFF78CFB0021AE2000F0D6
:1018A00087FA0021D52000F083FA0021802000F083
:1018B0007FFA0021A82000F07BFA00213F2000F0F1
:1018C00077FA0021D32000F073FA0021084600F0D7
:1018D0006FFA0021402000F06BFA00218D2000F00B
:1018E00067FA0021142000F063FA0021202000F0A4
:1018F0005FFA0021022000F05BFA0021A12000F035
:1019000057FA0021C02000F053FA0021DA2000F03D
:101910004FFA0021122000F04BFA0021812000F044
:1019200047FA0021662000F043FA0021D92000F098
:101930003FFA0021222000F03BFA0021DB2000F0DA
:1019400037FA0021302000F033FA0021A42000F003
:101950002FFA0021A62000F02BFA0021AF2000F082
:1019600027FAFFF723FF38BD0008014000100140AF
:10197000F0B504460F46101BC1B2D81BC0B21E46BC
:101980001546814219D948B1B1FBF0F612E00122A7
:1019900039462046FFF720FF641CE4B2AC42F6D97A
:1019A000F0BD06FB04F0C1B201222046FFF714FF90
:1019B000641CE4B2AC42F4D9F0BD51B1B0FBF1F516
:1019C0003C4612E0012239462046FFF705FF7F1C06
:1019D000FFB2B742F6D9F0BD05FB04F0C0B2012258
:1019E0002146FFF7F9FE641CE4B2B442F4D9F0BD1D
:1019F0002DE9F0410746164606981D468846B7422F
:101A000024D2A84522D280BB3C460BE001224146AD
:101A10002046FFF7E1FE012229462046FFF7DCFEC3
:101A2000641CE4B2B442F1D908F10100C4B20BE085
:101A3000012221463846FFF7CFFE012221463046DB
:101A4000FFF7CAFE641CE4B2AC42F1D3BDE8F081FA
:101A5000444606E0012221463846FFF7BDFE641CDD
:101A6000E4B2AC42F6D97F1CFFB2B742F0D9EDE741
:101A700070B502F0EBFC154C0026154D2670207851
:101A80000021B030C0B200F093F90021084600F008
:101A90008FF90021102000F08BF9667060782178B2
:101AA00005EBC000405C012100F082F96078401C29
:101AB000C0B260708028F1D32078401CC0B2207082
:101AC0000828DCD3BDE8704002F0CEBC0C02002038
:101AD000123400202DE9F84F83461E460F468A46F1
:101AE000580700D0012000EBD60071084843203A87
:101AF000C0B202F0FF090025009039E00C2E0FD093
:101B0000102E11D0182E36D11C4909EBC90001EB5B
:101B100080004FF00008445D200609D50A9A0AE0CB
:101B200009EB49001649F2E7164901EB0910F0E705
:101B30000A9890B1002239465846FFF74DFE6006DC
:101B40007F1C040EFFB2A7EB0A00B04207D10BF1D5
:101B50000100574600F0FF0B08E00122EBE708F117
:101B6000010000F0FF08B8F1080FD5D36D1CEDB2ED
:101B700000988542C2D3BDE8F88F0000C458000821
:101B8000604E0008D45200082DE9F84F83461E46E7
:101B900092460F468946580700D0012000EBD60038
:101BA0007043C0B2002500903BE00C2E0FD0102EE9
:101BB00013D0182E38D11D490AEBCA0001EB800062
:101BC0004FF00008445D20060BD50A9A0CE0184936
:101BD0000AEB4A0001EBC000F2E7164901EB4A109C
:101BE000EEE70A9890B1002239465846FFF7F4FD17
:101BF00060067F1C040EFFB2A7EB0900B04207D1BC
:101C00000BF101004F4600F0FF0B08E00122EBE76B
:101C100008F1010000F0FF08B8F1080FD3D36D1CE4
:101C2000EDB200988542C0D3BDE8F88FC4580008D3
:101C3000A0680008206600082DE9FF4F83B08146A8
:101C4000DDE9114598460598FEF766FB1FFA80FB13
:101C50001098FEF754FB07460B4600913A460020C9
:101C60001F4901F0F1F906468A460598FEF781FB07
:101C700032465346FEF7C0FAFEF762FB86B23A469A
:101C800000201749009B01F0DFF9FEF759FB80B2F5
:101C9000B6FBF0F100FB116643465A46CDE900451C
:101CA0004846049900F01EF808FB04F009EB5000C8
:101CB000C0B223462E2200950499FFF70BFF08F1CE
:101CC00001006043CDE9004509EB5000C0B2324647
:101CD000109B049900F006F807B0BDE8F08F0000F3
:101CE000000024402DE9FF4F81B00027DDE90EB947
:101CF0001D46924680463C464FEA5B0627E0281B7D
:101D0000401EC1B20A2000F0C6FFBAFBF0F00A2163
:101D1000B0FBF1F201FB120027B9691E8C4201DA17
:101D200048B101273030C2B206FB0480C0B25B4626
:101D3000CDF8009006E006FB0480C0B25B4620228E
:101D4000CDF800900299FFF7C5FE641CE4B2AC42E6
:101D5000D5D305B0BDE8F08F2DE9F84F04461F46F6
:101D6000802016460D46A0EB5709C3F140084FF0FE
:101D7000010A16E0A14502D20024E819C5B2A8451F
:101D800003DA00242546FFF711FDCDF800A03278D4
:101D90003B4629462046FFF79DFE04EB5700C4B2A0
:101DA000761C307820385E28E4D9BDE8F88F000032
:101DB0002DE9F041174E054600294FF0020130464B
:101DC00002D0FFF7F6F801E0FFF7F1F80421304602
:101DD000FFF7EDF8104F002401213046FFF7E7F838
:101DE00028064FF00801384602D5FFF7E2F801E077
:101DF000FFF7DDF801213046FFF7DBF86806641CC9
:101E0000050EE4B2082CE7D33046BDE8F0410421CA
:101E1000FFF7CFB800080140001001407CB5FFF784
:101E2000C5FC012400211023022208460094FFF77C
:101E3000ABFE10230322002170200094FFF7A4FEC4
:101E400003214020CDE9000100232022014600F0BB
:101E5000B5FA00202025CDE900500246022329468C
:101E6000284600F0ABFACDE900542021022360227D
:101E7000084600F0A3FABDE87C40FFF7F9BD7CB549
:101E8000FFF794FC0124002110230422084600944B
:101E9000FFF77AFE10230522002170200094FFF73F
:101EA00073FE04214020CDE90001002320220146D9
:101EB00000F084FA00202025CDE9005002460223DC
:101EC0002946284600F07AFACDE900542021022361
:101ED0006022084600F072FABDE87C40FFF7C8BDFA
:101EE00038B50121102000F005F903208DF802001B
:101EF00010208DF8030020200C4CADF8000069463E
:101F00002046FEF7FFFF4021ADF80010694620464D
:101F1000FEF7F8FF002220212046FFF74CF80122AF
:101F200040212046FFF747F838BD0000000C014073
:101F300008B502F049FEDFF8E880DFF8E8A03A4F84
:101F4000DFF8E8903A4D4FF47A744FF496664FF00C
:101F5000300B00901E21684602F0FCFAFFF73CF8B7
:101F6000C0F5FA6098F8001080B299B141F6BD71E1
:101F7000484304EBC0004FF4FA6190FBF1F081B2EA
:101F8000A1F5EA40313842F20F72904213D247F67F
:101F9000FF7110E0FEF7B3F900224FF0804301F02B
:101FA00053F8244A244BFEF727F9FEF7C9F981B20A
:101FB000A14200D20021FFF715F8BAF80020801ADC
:101FC00000B2C0EB0010400090FBF6F2FEF7FEFFFF
:101FD0003B88181A00B2C0EB0010400090FBF6F3EB
:101FE000FEF7EEFFB9F800C085F801B0A0EB0C00D9
:101FF00000B2C0EB0010400090FBF6F04FF0050C73
:1020000085F800C0A970090AE97028716B710B4846
:10201000AA7100231A460649006802F049FC99E7B4
:10202000130200201C0200201E02002020020020BB
:10203000A4380020A4703D0AD7A3903F540200208A
:102040001FB50021CDE9000102910B4603918022CA
:1020500002A1074802F0F0FC1FBD0000496E746544
:1020600072666163655265667265736800000000A0
:102070004D1200081FB50021CDE9000102910B4669
:102080000391802202A1054802F0D6FC1FBD00008A
:102090004B657948616E646C650000004D13000863
:1020A0001FB50021CDE9000102910B46039180226A
:1020B00002A1044802F0C0FC1FBD0000526F636B18
:1020C00000000000311F0008034A516821F440411C
:1020D000014351607047000000100240044A00298B
:1020E000516901D0014300E0814351617047000014
:1020F00000100240044A0029916901D0014300E028
:10210000814391617047000000100240044A002999
:10211000D16801D0014300E08143D16070470000E5
:1021200000100240084D094C094801F003FF012846
:10213000FAD128780128F7D120780028F4D0044873
:10214000FFF74EF8F0E70000ED010020120200203A
:10215000D93300207CB5FFF729FB0022012410238E
:10216000114610460094FFF70FFD102301220021B5
:1021700070200094FFF708FD02214020CDE9000106
:1021800000232022014600F019F900202025CDE986
:102190000050024602232946284600F00FF9CDE9F7
:1021A0000054202102236022084600F007F9BDE810
:1021B0007C40FFF75DBC00002DE9F14F82B0029832
:1021C00001F098FE08B1012700E000274FF0000859
:1021D000DFF8B4904FF0FF3AC3462B48083050F870
:1021E0002740601C4DD0294807EBC70100EB810652
:1021F000254956F824001831002351F8241052467E
:1022000001EBC005401C46F824001946D9F804002B
:1022100002F0A7FA686810F1020F07D0504508D104
:1022200046F824A0384600F025FC20E046F824B00B
:102230001DE02978384600F0C7FA6868B8B1FEF7A3
:102240004DF8FEF77DF802465C4600230221CDF8EA
:1022500000B0029802F0E0FD02F0B6FC0246002356
:1022600019460094029802F0D7FD4FF001080023B0
:102270001A461946D9F8040002F01AFBB8F1000F0B
:10228000ABD0BDE8FE8F0000880000207033002036
:102290000029018802D041F0400101E021F0400115
:1022A000018070470246002012890A4200D00120B6
:1022B0007047808970478181704730B502884C88AB
:1022C00002F441530A88CD8822438C882C43224350
:1022D0000C8922434C8922438C892243CC89224396
:1022E0001A430280828B22F400628283098A01826F
:1022F00030BD0000054920224A7001220A70887012
:10230000034800231A46006802F0D2BAA43800201D
:10231000540200200CB50022264800920192016868
:1023200041F4803101604FF4A063016801F4003191
:1023300001910099491C0091019911B900999942A4
:10234000F3D10168890333D5012101911A490A6843
:1023500042F010020A600A6822F003020A600A686A
:1023600042F002020A604168416041684160416890
:1023700041F480614160416821F47C114160416811
:1023800041F4E8114160016841F080710160016829
:102390008901FCD5416821F003014160416841F0A9
:1023A000020141604168C1F381010229FAD10CBDEB
:1023B00001920CBD0010024000200240F0B5002444
:1023C000DDE9055C23E000211DE0E618082E18D2A7
:1023D0008E1816D4802E14DA202D1CD0402D19D141
:1023E000104F01EB4C2E05FB047717F80E70DFF849
:1023F00038E00EEBC606C4F1070EAEEB030E06F88E
:102400000E70491CC9B28142DFD3641CE4B2B4EB44
:10241000D50FD8D3F0BD054F01EBCC1E05FB0477DB
:10242000E3E70000606A00081234002060690008D9
:1024300070B50B4C054602212046FFF733FF0028FC
:10244000F9D029462046FFF736FF01212046FFF745
:1024500029FF0028F9D02046FFF72BFFC0B270BD3E
:1024600000300140FEB500203F237F22014600904E
:10247000FFF7BEFA01240F237F22194600200094A3
:10248000FFF776FA1F237F22194600200094FFF7FA
:102490006FFA2F237F22194600200094FFF768FA75
:1024A0000C2348A202210820FFF756FC0C2347A268
:1024B00012210220FFF750FC0C2346A22221082003
:1024C000FFF74AFC0C2345A232210220FFF744FC0F
:1024D00026223F23012110460094FFF749FA414E7E
:1024E000414F0C2570692B46B84200940CD32D2225
:1024F00002212820FFF7EEFA7069CDE9004580F04F
:1025000000420323029409E0202202212820FFF741
:10251000E1FACDE9004502947269032302212E20DD
:10252000FFF78AFBB0694FF00C03B84200940CD35C
:102530002D2212212820FFF7CDFAB069CDE9004500
:1025400080F000420323029409E020221221282077
:10255000FFF7C0FACDE900450294B26903231221C6
:102560002E20FFF769FB30694FF00C03B84200944E
:102570000CD32D2222212820FFF7ACFA3069CDE9B7
:10258000004580F000420123029409E0202222212C
:102590002820FFF79FFACDE9004502943269012314
:1025A00022212E20FFF748FBCDE9004502940523A8
:1025B00032212820F268FFF73FFBBDE8FE40FFF71D
:1025C00057BA00004572723A000000005049445664
:1025D000616C00004261743A00000000544852559A
:1025E00053540000F001002000008080FEB5002060
:1025F0003F237F2201460090FFF7FAF901240F23C1
:102600007F22194600200094FFF7B2F91F237F2292
:10261000194600200094FFF7ABF92F237F221946BB
:1026200000200094FFF7A4F90C2348A202210820FF
:10263000FFF792FB0C2347A212210520FFF78CFB2A
:102640000C2346A222210220FFF786FB0C2345A281
:1026500032210220FFF780FB26223F230121104672
:102660000094FFF785F9414E414F0C2530682B4609
:10267000B84200940CD32D2202212820FFF72AFA19
:102680003068CDE9004580F000420323029409E060
:10269000202202212820FFF71DFACDE900450294EF
:1026A0003268032302212E20FFF7C6FA70684FF02C
:1026B0000C03B84200940CD32D2212212820FFF7DE
:1026C00009FA7068CDE9004580F0004203230294C6
:1026D00009E0202212212820FFF7FCF9CDE900456E
:1026E00002947268032312212E20FFF7A5FAB06826
:1026F0004FF00C03B84200940CD32D222221282045
:10270000FFF7E8F9B068CDE9004580F00042032307
:10271000029409E0202222212820FFF7DBF9CDE9ED
:1027200000450294B268032322212E20FFF784FA89
:10273000CDE900450294052332212820F268FFF7F5
:102740007BFABDE8FE40FFF793B900005941573AC4
:1027500000000000524F4C4C3A00000050495443D6
:10276000483A00005448525553540000F0010020EC
:1027700000008080F8B501211820FFF7BBFC102075
:102780008DF8030003208DF8020040200C4DADF8B9
:10279000000069462846FEF7B5FB0A4E4FF4004498
:1027A000ADF8004069463046FEF7ACFB40212846B4
:1027B000FEF7FFFB21463046FEF7FBFBF8BD0000AD
:1027C00000100140000C01400B4602004FF00201D6
:1027D00009D0012A0AD002280ED0012B0AD0002BE2
:1027E0000AD1FEF7E6BB40210448F6E74FF400416A
:1027F0000348F2E7FEF7DBBB704700000010014022
:10280000000C01400F4810B5016841F00101016062
:1028100041680D4A1140416001680C4A1140016055
:10282000016821F480210160416821F4FE014160CA
:102830004FF41F018160FFF76DFD05494FF0006007
:10284000086010BD001002400000FFF8FFFFF6FE18
:1028500008ED00E02DE9FC4190460F460546FEF7E5
:10286000A5FF012410230622002118200094FFF761
:102870008BF910230722002128200094FFF784F908
:1028800010230822002138200094FFF77DF9002250
:102890001023114648200094FFF776F910230122F7
:1028A000002158200094FFF76FF9002110230E2219
:1028B00008460094FFF768F910230F2200217020CA
:1028C0000094FFF761F90026102369223146172092
:1028D0000096FFF78DF83F237F22102100200096FD
:1028E000FFF786F827237F22194600200094FFF780
:1028F0003FF843223F23102110460094FFF738F899
:1029000010230922142102200095FFF73DF910231E
:102910000A22142112200095FFF736F9102306220F
:10292000142122200095FFF72FF9102307221421EC
:1029300032200095FFF728F91026CDE90064042322
:102940003A4614214F20FFF7CDF9E843C5B21023D2
:1029500009222B2102200095FFF716F910230B22E4
:102960002B2112200095FFF70FF9102306222B21AF
:1029700022200095FFF708F9102307222B2132208F
:102980000095FFF701F9CDE90064042342462B21AD
:102990004F20FFF7A7F9BDE8FC41FFF769B8000039
:1029A0000A4D0B4C28780128FCD10948FEF7FCF8A9
:1029B0000028F7D12178601C491CC9B200F01EFB29
:1029C000072000F003FA6870ECE70000ED0100203A
:1029D000B833002001F056BC0A0A01219140C943D6
:1029E00001807047002A828A01D00A4300E08A43AE
:1029F0008282704770B501F01F0501260024C1F3E3
:102A0000421306FA05F2012B0FD0022B0FD0838A56
:102A10004FEA11210088134206FA01F600EA060087
:102A200001D000B10124204670BD8389F0E7038AFC
:102A3000EEE710B5C1F3421301F01F040121A140DC
:102A4000012B07D0022B07D01430002A026805D0D2
:102A50000A4304E00C30F8E71030F6E78A430260DE
:102A600010BD8088C0F308007047C1F30801818061
:102A70007047000070B50D4D04464FF0FF3045F82B
:102A8000240000212046FFF79FFE094A04EBC40002
:102A9000002102EB800252F82100401C02D045F8D0
:102AA000241070BD491C0929F5D370BD9000002089
:102AB00070330020FEE7490050EAC12018BF04200F
:102AC0004A0D18BF40F0010040F2FF72B2EB515FB7
:102AD00008BF40F00200012808BF052070472DE91B
:102AE000F0414F1E00EBC7010446D1E90001154635
:102AF0001E4637F006020DD02A463346FDF77CFB12
:102B00007F1E04EBC703D3E90023FDF7B2FC37F0C7
:102B10000602F1D1022F25D0042F13D0062F18BFA3
:102B2000BDE8F0812A463346FDF766FBD4E90A2367
:102B3000FDF79FFC2A463346FDF75EFBD4E90823E8
:102B4000FDF797FC2A463346FDF756FBD4E90623EA
:102B5000FDF78FFC2A463346FDF74EFBD4E90423EC
:102B6000FDF787FC2A463346FDF746FBD4E90223EE
:102B7000FDF77FFC2A463346FDF73EFBD4E90023F0
:102B8000BDE8F041FDF775BC00221346104601492F
:102B9000FDF716BD0000F03FFDF76BBC00221346A9
:102BA00010461146FDF70CBD40F2013200204FF0F7
:102BB000E041FDF774BD0000024A00201107FDF757
:102BC0006EBD000001FDFFFF02E008C8121F08C132
:102BD000002AFAD170477047002001E001C1121F9E
:102BE000002AFBD1704700000149086070470000CF
:102BF0005802002010B5044C2078002803D101F0C1
:102C0000C9F90120207010BDEC01002008B50A2090
:102C10008DF800000D208DF801000F208DF80200C6
:102C200001208DF803006846FEF78EFD08BD10B543
:102C30001020FEF7CFF8012806D100F09BF8BDE880
:102C400010401020FEF7C0B810BD000008B50020ED
:102C500003460146009005486A46406801F096FE2A
:102C60000098002801D001F033FC08BD600000206E
:102C7000FEF71EFDFEF7EAFDFDF7FAFDFEF702FB8B
:102C8000FFF72EF9FEF7EEF8FFF764FA01F090FA7D
:102C900001F0C8FCFEE70346012000E05843491E4E
:102CA000C9B2FBD2704700001CB50FA00522D0E9C5
:102CB0000010CDE900106946102000F07BF90522D4
:102CC0006946102000F05EF8002069460A5CA52ADB
:102CD00003D1401CC0B20528F8D3052801D000203C
:102CE0001CBD01201CBD0000A5A5A5A5A5000000D8
:102CF00070B5094C10212046FEF759F95020FFF716
:102D000097FB05467320FFF793FB10212046FEF743
:102D100050F9284670BD00000008014070B5094C0C
:102D200010212046FEF743F9E220FFF781FB05461C
:102D3000FF20FFF77DFB10212046FEF73AF92846D9
:102D400070BD00000008014070B5094C10212046FC
:102D5000FEF72DF9E120FFF76BFB0546FF20FFF79B
:102D600067FB10212046FEF724F9284670BD0000BD
:102D70000008014002480068002800D00047704762
:102D8000500200202DE9F041DFF83C800E46074656
:102D90001546002410214046FEF709F907F01F00F0
:102DA000FFF746FB074605E00020FFF741FB3055E3
:102DB000641CE4B2AC42F7D310214046FEF7F9F8A8
:102DC0003846BDE8F08100000008014008B5012246
:102DD0006946FFF7D7FF9DF8000008BD70B5094CA4
:102DE00010212046FEF7E3F86020FFF721FB0020CA
:102DF000FFF71EFB054610212046FEF7DAF82846AD
:102E000070BD0000000801402DE9F041DFF8388076
:102E10000D46064610214046FEF7C9F86120FFF72F
:102E200007FB0746002405E00020FFF701FB3055B3
:102E3000641CE4B2AC42F7D310214046FEF7B9F867
:102E40003846BDE8F0810000000801407E2803D22A
:102E50000146052000F0F2B8704728B1012805D1DD
:102E60000F21062000F0EAB80721FAE770470000BA
:102E7000044A00284FF00801104601D0FEF799B827
:102E8000FEF795B80008014001490860704700004E
:102E9000500200200522012800D901220A30C0B2C8
:102EA00000F088B805220146102000F083B8000029
:102EB00070B588B001211420FFF71CF90121080327
:102EC000FFF718F901210846FFF714F9A020ADF823
:102ED000000018208DF803000320334E8DF8020007
:102EE00069463046FEF70EF84020ADF80000042594
:102EF0008DF8035069463046FEF704F81024ADF80B
:102F000000408DF8034069463046FDF7FBFF08207E
:102F1000ADF800008DF8034069463046FDF7F2FF3A
:102F2000ADF800408DF8035069462048FDF7EAFFF0
:102F300004210220FDF7D2FF00258DF81C500C2043
:102F40008DF81D0001208DF81E00069406A8FDF7DF
:102F500051FFFFF75BFE10213046FEF72AF80821EB
:102F60003046FEF724F8ADF804504FF48270ADF807
:102F700006006001ADF80C50ADF80E00ADF8104041
:102F800007200B4CADF80850ADF81400ADF80A500E
:102F9000ADF8125001A92046FFF78FF90121204614
:102FA000FFF776F908B070BD00080140001001403D
:102FB000003001402DE9F041DFF83C800E46074625
:102FC0001546002410214046FDF7F1FF07F01F00D1
:102FD00040F02000FFF72CFA074604E0305DFFF7D1
:102FE00027FA641CE4B2AC42F8D310214046FDF746
:102FF000E0FF3846BDE8F081000801402DE9F041CE
:10300000DFF834800D460646002410214046FDF7C7
:10301000CEFFA020FFF70CFA074604E0305DFFF773
:1030200007FA641CE4B2AC42F8D310214046FDF725
:10303000C0FF3846BDE8F0810008014013B5012209
:1030400001A9FFF7B7FF1CBD2DE9F04D1D460C4649
:1030500098B0174621F0004123F00043002814BF28
:103060004FF0010C4FF0000C0CEB440CFE4A0CEB43
:1030700002064FEA620C66452BD33E0018BF0126BC
:1030800006EB45061644F94A964222D3F84A53EA1B
:10309000070C02D0944205D148B918B0002011465F
:1030A000BDE8F08D002808BF4FF0000C01D04FF0B4
:1030B000010C0CEB440212F5001F0AD8002F14BFBC
:1030C0004FF0010C4FF0000C0CEB450212F5001F05
:1030D00007D918B03A462B462146BDE8F04DFFF718
:1030E0005BBD0022DFF88CA3002CB8BF534526DA65
:1030F000DFF884C36345A8BF022220DADFF870C37B
:103100009C451CDCDFF874C30CEB235CBCF1140F92
:1031100008DDCCF1340627FA06FC0CFA06F6BE42AE
:103120000DD108E05FB9CCF1140623FA06FC0CFAC5
:1031300006F69E4203D10CF00102C2F1020251EAEE
:10314000000C19D1002D17DA002C18BF022A01D06B
:10315000012A07D00220FFF747FD18B0BDE8F04D67
:10316000FFF712BD0220FFF73FFDFFF70DFD18B07E
:1031700081F00041BDE8F08DB7F1000C6CD15345F2
:1031800025D104F1804212F5801201BF00280020F1
:10319000B74918B008BFBDE8F08DB548884207DCD4
:1031A000002DA1BF6046294618B0BDE8F08D07E0AC
:1031B000281E05DA80F0004118B06046BDE8F08DA9
:1031C000AF497944D1E9000118B0BDE8F08DDFF8CE
:1031D000A0C2634525D1002D1FDA19B1514512D186
:1031E000D8B909E0002840F0EC82A24A214618B084
:1031F00062F31E01BDE8F08D0020214618B060F397
:103200001E01BDE8F08D08DA18B02346BDE8F04D88
:10321000024600206146FDF7D3B918B02146BDE84B
:10322000F08D514518DAB5F1804F0DD0A5F1005C55
:10323000BCF1FF5C10D1B4F1000C0DDB18B061469D
:10324000BDE8F04D00F08EBF234618B00246BDE841
:10325000F04D1946FCF7D0BF060024F0004C3BD1DE
:10326000D9B1514533D1002C06DD002DA1BF00207E
:10327000514618B0BDE8F08D002C01DD002D1BDBA0
:10328000002C13DA002D11DB012A4FF0000014BFCF
:1032900078497C4918B0BDE8F08D022A18BF002C8F
:1032A0000AD0012A08D1002C06DA0AE0002CB8BFA7
:1032B000002D11DA012A04D0002018B00146BDE823
:1032C000F08D18B000204FF00041BDE8F08DA1F165
:1032D0004050B0F17F601AD0012000EBE47050EA5A
:1032E000020421D0624C521E4FF0000B104304BF69
:1032F0004FF0000B644C654883427CDD644A6548AE
:1033000093421FDD884217DB002D25DB37E0002CC0
:1033100000DA4AB1022A0CBF01204FF0FF3018B08A
:10332000BDE8F04DFCF7DABF0120FFF75DFC18B0F7
:10333000BDE8F04DFFF732BC4D4A8A4202DC002D59
:103340000ADC1CE0814202DA002D18DA04E0484B66
:10335000994220DD002D12DD0220FFF745FCFFF72A
:1033600023FC05460E460022534658462146FCF7EC
:1033700043FF18B066F31E012846BDE8F08D022019
:10338000FFF732FCFFF718FC0A46214618B062F33B
:103390001E01BDE8F08D002230466146FDF70AF9B6
:1033A00080460E466FF00102FDF779F94FF0553275
:1033B000394BFDF702F942463346FCF71DFF002268
:1033C000364BFDF7FAF882464246334604911046E2
:1033D0001946FCF711FF5246049BFCF70DFF8A4685
:1033E00000904FF0C0422E4B40463146FCF704FFA0
:1033F0002C4A2B4B00E027E0CDE90601514600980E
:10340000FCF7FAFE82460191274A284B4046314696
:10341000FCF7F2FE5246019BFDF7CCF882460B46C4
:1034200002460591DDE90601FDF723F8DDE90623F3
:10343000002688463046FDF7BDF85246059BFDF74D
:10344000BCF8024600F07EB90020B1F5801F07DA13
:10345000352230466146FDF722F906466FF034000A
:1034600000EB215024E00000FFFF1F00FFFF0F00D2
:103470000000F03F0000F07F0000404301FCFFFF30
:10348000224500000000F0FF0000F0BF0000E04116
:103490000000F043FFFFEF3F5555D53F0000E03FF0
:1034A0004715F73FFE822B6544DF5DF80BAE543EB7
:1034B000A0F2FF300190C1F3130040F07F6141F0B2
:1034C00040510291FE498842D8BF002004DDFD49E9
:1034D0008142C8BF012001DD0D9008E000200D9061
:1034E0000198401C01900298A0F58010029002996A
:1034F000F54878440B910D9900EBC100D0E9002309
:103500000F9330460A920B99FDF754F8CDE9060166
:10351000DDE90A2130460F9BFCF7ABFF02460B4664
:103520000020EA49FDF74CF8059102460B46009051
:10353000DDE90601FCF760FE1490E5488A464FF08D
:10354000000878440299006812904FF0005040EA59
:1035500061010D980F9B01EB804000F5002109915E
:103560000A9A1298FDF726F832460B9BFDF725F8CC
:1035700042465346FCF740FE0646029140465146FD
:10358000099B129AFCF738FEDDE90623FDF715F8D2
:103590003246029BFDF70EF8059B009AFCF72CFEC5
:1035A0000091149A0490534610461946FCF724FEE5
:1035B00006460246C7480B46029106217844FFF7AB
:1035C0008EFACDE90510029B324610461946FCF7EB
:1035D00013FEDDE90532FCF70FFE05910646534662
:1035E00040461946149AFCF744FF009B049AFCF7E6
:1035F00003FE3246059BFCF73CFFCDE90510424631
:10360000534610461946FCF7F7FD0022B24B0291D3
:103610000A90FCF72EFFDDE90532FCF72AFF0E4683
:103620004246AD4B4046FCF7C5FF029B0A9AFCF7A9
:10363000C1FFDDE90532FCF7C0FF424602910A9066
:10364000334610465146FCF7D7FDCDE906015346F7
:10365000149A02990A98FCF7CFFD8A4602903346E5
:10366000424600990498FCF7C7FD5346029AFCF7BE
:1036700000FF82460B4602460591DDE90601FCF794
:10368000F8FEDDE90623002088460646FCF792FF97
:103690005246059BFCF791FF824609914FF060422C
:1036A0008E4B30464146FCF7A7FD049006918C4AAC
:1036B0008A4B50460999FCF79FFD82460291894A40
:1036C000894B30464146FCF797FD5246029BFCF77A
:1036D000D0FE864B7B440D9A03EBC203D3E9002353
:1036E000FCF7C7FE0E9007910198FCF7F7FD0591D6
:1036F000DDE9061382460E9A0498FCF7BAFE7C4A6E
:103700007A440D9B02EBC303D3E90023009302929A
:10371000FCF7AFFE5246059BFCF7ABFE0026884641
:1037200052463046059BFCF745FF009B029AFCF78A
:1037300041FF069B049AFCF73DFF079B0E9AFCF79E
:103740003CFF024600200B46029038462946FCF713
:1037500053FD824601912B4638461946029AFCF7E2
:1037600029FF32464346FCF747FD5246019BFCF7D2
:1037700080FE07468A463246434629460298FCF7B1
:103780003BFD05460E463A465346FCF772FE594A43
:103790008846914221DBA8EB020353EA000210D1D4
:1037A0002A463346FCF706FFCDE90401524A534B43
:1037B00038465146FCF75DFEDDE90423FCF786FF41
:1037C00021D20220FFF710FAFFF7EEF90A46214650
:1037D00018B062F31E01BDE8F08D494B28F000429D
:1037E0009A4210D3474A08EB020353EA00027FF4DF
:1037F000C6AD2A463346FCF7DDFE3A465346FCF793
:1038000065FF7FF6BCAD0022019228F000403E49E2
:103810003E4A01EB2051824223DA481C4FF48011CA
:1038200021FA00F040443A4AC0F30A517A44394B35
:10383000A1F2FF31CB4020EA0303C0F3130040F4B0
:103840008010C1F11401C84012680190B8F1000F56
:10385000BCBF4042019028463146FCF7ABFE05460E
:103860000E462A46334638465146FCF702FE4FF0D4
:1038700000084246284B40460591FCF7BDFCCDE9C7
:103880000601264A264B40460599FCF7B5FC0091F7
:1038900002902A46334640460599FCF78BFE3A468D
:1038A0005346FCF78AFE1F4A1F4BFCF7A5FC009B02
:1038B000029AFCF7DEFD0746884602460B4635E0D5
:1038C0008E9803007AB60B006A4100000000F03FBA
:1038D000A2410000D04000000000084009C7EE3FB0
:1038E000FD033ADCF5015B14E02F3EBEA83F00006B
:1038F0006C3F000000009040FE822B654715973C0E
:1039000000CC904000346F3F01FCFFFF0000E03F1F
:10391000B83E0000FFFF0F00432EE63F396CA80CB5
:10392000615C20BEEF39FAFE422EE63FDDE906017A
:10393000FCF79FFDDDE9062305460E46FCF73AFE3F
:103940003A464346FCF739FE0F462A463346009076
:1039500010461946FCF750FC824602462E4888461F
:103960000B4605217844FFF7BAF852464346FCF768
:1039700043FC2A463346FCF720FE80468A463B46F7
:1039800028463146009AFCF737FC3B46009AFCF784
:1039900070FD0691009000224FF080434046514652
:1039A000FCF708FE0F460C90424653462846314627
:1039B000FCF722FC3B460C9AFCF702FE069B009AA1
:1039C000FCF7F8FD2A463346FCF7F4FD0022134BC2
:1039D000FCF7F3FD054601980E4601EB0051081572
:1039E000002810DC28463146019AFCF758FEFFF704
:1039F00062F8042808BFFFF7DFF828463146019A2D
:103A0000FCF74DFE05460B4618B02A46584621469F
:103A1000BDE8F04DFCF7F0BB583D00000000F03F62
:103A200070B50B4D044628684460E86829688442F4
:103A300005D2686BBDE87040091D00F0E3BC286B3F
:103A4000091D00F0DFFCE86A844200D2EC6270BD20
:103A50001800002010B500F0F9FC0C4C206880B96B
:103A60000B4800F0C1FC0A48143000F0BDFC0848C7
:103A7000A0601430E06000220C21142000F050FE01
:103A80002060BDE8104000F0EFBC000050000020B6
:103A90002433002070B5134E134D1FE000F0E8FDF5
:103AA000306820B1002401F027F9BCB901E00124FD
:103AB000F9E700F0CBFCF068C468201D00F082FC40
:103AC000A868401EA8606868401E686000F0CCFCD2
:103AD000206B00F0D3FC204600F0D0FC6868002882
:103AE000DCD170BDFC3200201800002030B4046826
:103AF0000D46002C0CD0026CC1688B18C360416865
:103B00008B4200D3C460C168284630BCFCF750BB70
:103B100030BC704770B51546026C044612B37DB1D7
:103B2000E068FCF745FBE168206C091AE160226857
:103B3000914202D26168081AE060022D0DD011E0B6
:103B4000A068FCF735FB216CA0680844A0606168A0
:103B5000884207D32068A06004E0A06B10B1A06B7E
:103B6000401EA063A06B401CA06370BD0C480023E6
:103B700020F007010B480B4AC0E9001342F6F87029
:103B800008440C3A083810604360036042F6F07352
:103B9000C1E90003506808385060D806906070474B
:103BA000640200200C000020044CFFF773FF206823
:103BB0000128FAD900F08CFCF7E700005C32002005
:103BC00030B5114900E011460A688242FBD34B68C8
:103BD0005C18844203D14068184448600846436832
:103BE0001C18944209D1084C0C3C2468A24209D00C
:103BF00052681A4442600A6812680260814200D02A
:103C0000086030BD0460F9E70C00002070B50024A6
:103C100041600B4D0061914206D8D11A82699142F0
:103C200006D2011DE86807E09A4203D2994201D307
:103C3000012403E0011DA86800F0E4FB204670BDEC
:103C40005000002030B585B0214D37E0039C6069FD
:103C500010B1201D00F0B6FB04A800F07DF802466C
:103C6000019830B1012829D002281CD0032825D181
:103C700021E00298A169034601442046FFF7C6FFF0
:103C800001281BD1616A20468847E069012815D1C7
:103C9000002000900298A16900234218194620468E
:103CA00001F0BAF80AE00298A06181181346204694
:103CB000FFF7ACFF02E0204600F0E0FB00231A46CD
:103CC00001A9286800F04DFD0028BFD105B030BD26
:103CD000500000202DE9FC410F46054600F0C8FCCD
:103CE00001A800F039F80446019818B101F004F871
:103CF000BDE8FC81174E17BBA54220D800F0FCFFA1
:103D0000B0682746C068C468201D00F05BFBE0690E
:103D1000012810D1A0692B4641193A462046FFF7E9
:103D200075FF012807D100200346014600902A466E
:103D3000204601F071F8616A20468847D8E7291BC0
:103D4000306800F0D1FB00F0D7FF0028D0D100F0A0
:103D5000BFFBCDE75000002070B5054600F034FFF2
:103D6000064E04467068844203D200F009F8012030
:103D700000E0002028602046746070BD50000020E4
:103D8000F8B5144E1EE0C068C4680568201D00F038
:103D900019FB616A20468847E069012812D1A069B1
:103DA0002844A84206D924616060211DB06800F053
:103DB00029FB07E000200346014600902A462046E2
:103DC00001F02AF8B06801680029DCD1F168C6E981
:103DD0000210F8BD50000020084CA068016839B1FD
:103DE000002139B10020FFF775FFFFF72BFFF4E743
:103DF0000121F6E7C0680068F5E7000050000020E8
:103E000070B5044600F022FB04F124050AE0606A64
:103E100058B1284600F044FF08B100F0C3FBA06C85
:103E2000401EA064A06C0028F1DC4FF0FF35A564B3
:103E300000F01AFB00F00AFB04F110060AE020690A
:103E400058B1304600F02CFF08B100F0ABFB606CBD
:103E5000401E6064606C0028F1DC6564BDE8704061
:103E600000F002BB2DE9F0410546002600F000FC01
:103E70001F4F386808B9FFF779FEB868054232D19C
:103E80008DB30835680704D005F00700C0F10800BD
:103E9000054445B37868854225D815490C31084654
:103EA000046801E0214604466068A84202D2206806
:103EB0000028F7D13868844215D00E682068086061
:103EC00060680836411B102904D96019416065609B
:103ED000FFF776FE60687968091A7960B968084367
:103EE00060600020206000F007FF3046BDE8F081F0
:103EF00000000020006A704710B5031F4FF0807467
:103F00001C601B1F1960191F00230B6014394038F7
:103F10000A6010BD10B500F057FE05490969401A46
:103F2000B0F5FA6F01D9002010BD012010BD0000CE
:103F3000600000200146054810B500231A46C068FD
:103F400000F00FFC012800D0002010BD6000002010
:103F5000044810B50021806800F07AFCBDE81040EC
:103F6000FEF7F2BE600000200146044810B50023B1
:103F70001A46806800F09CFC002010BD6000002004
:103F800010B50446FEF774FF01480470002010BD10
:103F9000610000201FB5FEF78BFFFEF785FE00B124
:103FA0000120174C20701748FEF76EFF03220021F6
:103FB000012000F0B5FB606020B100231A461946CD
:103FC00000F076FC00222121032000F0A9FBE06034
:103FD00000222121032000F0A3FBA060012000F0BB
:103FE0001BF800200221CDE9001002900346039047
:103FF000802205A1074800F01FFD012020701FBD91
:10400000600000204D2C0008526164696F4C696E9D
:104010006B000000F94000087CB5044633A0354D24
:10402000D0E90010CDE9001008212846FCF7BFFFB9
:1040300069460020FEF72EFF6846FEF733FF012198
:104040000220FEF7FBFF2820FEF700FF0020FEF70E
:1040500004FF00210120FEF7F1FF1A210420FEF7E2
:10406000EDFF34B1012C0AD0022C18D0032C0ED154
:1040700023E020211120FEF7E1FF0F2104E02021A1
:104080001120FEF7DBFF0E210020FEF7D7FF0821ED
:104090002846FCF78EFF642000F042FA7CBD002425
:1040A000FEF73CFE641C032CFADB0024FEF74CFEFA
:1040B000641C032CFADB0F210CE00024FEF72EFE1B
:1040C000641C032CFADB0024FEF73EFE641C032C68
:1040D000FADB0E210020FEF7B1FFFEF709FE0121F9
:1040E0001C20FEF7ABFF06211D20CEE7E7E7E7E740
:1040F000E700000000080140184C194D4FF0FF3652
:10410000002332461946606800F02BFB00F05CFD8E
:1041100020610020FEF7ACFE13E0FEF75FFEA0700A
:10412000202802D9FEF7FAFD0BE0411E2970014656
:10413000681CFEF769FE00231A460949E06800F092
:10414000B7FB1720FEF742FEC007E6D0702107201C
:10415000FEF774FF0120FEF78BFED1E76000002020
:104160004C3300202DE9F04106460F46FCF7F9FAE2
:10417000041E0D4618BF0120284320F00040C0F166
:104180007F6000F1E040C00F0ED0301C18BF01204E
:10419000384320F00040C0F17F6000F1E040C00FE4
:1041A00004BF0120FEF720FD20462946BDE8F0812E
:1041B0001FB500200221CDE90010029003460390B4
:1041C0004FF4407202A1044800F036FC1FBD00000D
:1041D00053595354454D0000DD4100081FB51549A2
:1041E00001200870FEF706FD0220FDF759FF0220AE
:1041F000FDF740FF0220FDF723FF00240225CDE953
:1042000000544FF4C0760294234632460AA10C486B
:10421000039400F011FCCDE90054029400233246CF
:1042200008A10A48039400F007FC641E204600F031
:1042300077F9FBE7ED0100207461736B310000003A
:10424000252100087461736B32000000A129000869
:1042500010B50A4C002202212046FCF78DFD4FF4D8
:104260000050FCF7EFFC002280210548FEF7BAFB66
:104270002046BDE810400021FCF7F0BC440002409D
:10428000003801402DE9FC41264E002540F22777F9
:10429000394630460095FEF7ADFB234C012829D165
:1042A000A078E178884219D2204D295C3046FEF78B
:1042B000DCFBA078401CC0B2A070E178491E8842A7
:1042C00018DA012816D92178285C6A5C1044FF228C
:1042D000B0FBF2F302FB130068540BE000223946F6
:1042E0003046FEF7A6FB002300956A461946A068F3
:1042F00000F04CFB39463046FEF76EFB40F225518C
:104300003046FEF777FB01280AD13046FEF7A9FBBD
:104310008DF8040000236A4601A9E06800F036FB2E
:10432000BDE8FC8100380140240200201438002040
:104330000146074810B500231A46406900F011FAFB
:10434000012802D04FF0FF3010BD002010BD00004A
:104350002402002070B50446164DAA20A11C287026
:10436000552068706078A8702078E8702278281D41
:10437000FBF71EFF104E01200021B0703171207834
:104380000E4C401DF070401EC0B230702954297888
:104390002046FEF76AFB012240F227712046FEF715
:1043A00048FB00235A1E1946B06800F0DAF90020D5
:1043B00070BD0000143800202402002000380140A5
:1043C00000207047D0E901128A60D0E901125160E3
:1043D00001694A68824201D182684A600022026112
:1043E0000868401E0860704700F108014FF0FF3276
:1043F000C0E90112C1600161002101607047002124
:104400000161704730B50C68621C02D000F10802EF
:1044100002E0026904E01A4653681D68A542FAD911
:1044200053684B6099608A60516008610168491C5B
:10443000016030BD42684A6093688B609368596040
:10444000916008610168491C0160704710B5FBF775
:104450008FFE04480168491C0160BFF34F8FBFF312
:104460006F8F10BD1400002003490868401E0860CB
:1044700001D1FBF784BE70471400002070B50028FE
:1044800018D00D4DA0F108046068A968084211D049
:104490002268002A0ED18843606000F0E9F8606865
:1044A0006968084468602046FFF78AFBBDE87040F1
:1044B00000F022BC70BD0000000000204FF0E020A2
:1044C0000249416107210161704700003F19010065
:1044D00004494FF080500860BFF34F8FBFF36F8FD8
:1044E0007047000004ED00E070B50D460446FFF78C
:1044F000ADFF616C0020491C00D16064A16C491CB7
:1045000000D1A064FFF7B0FFA06B20B9294604F1E9
:10451000240000F06BF82046BDE87040FFF770BC47
:1045200010B502000FD000F0A3F80948C168006878
:104530008C18001DFFF746FF2046FFF771FA00F0C8
:10454000DBFB002803D1BDE81040FFF7C1BF10BD61
:104550001800002070B50C460546002200F088F8CF
:104560000F49C8682B681C44834202D9A34202D871
:1045700004E0A34201D8844200D901222C6032B168
:104580000868001DFFF71EFF2046FFF749FA00F0FC
:10459000B3FB002803D1BDE87040FFF799BF70BDA1
:1045A000180000200149012008627047180000200F
:1045B00070B50C4C0D4621681831FFF723FF2068B9
:1045C000001DFFF7FFFE681C05D0E0682844BDE829
:1045D0007040FFF725BA2168BDE870400248091D08
:1045E000FFF728BF180000201033002070B5084CDA
:1045F0000D4621681831FFF71DFF2068001DFFF7E9
:10460000E1FEE0682844BDE87040FFF709BA000009
:104610001800002002494A6A0260C9684160704778
:10462000180000201FB50024009401940294234632
:1046300080220BA10C48039400F0FEF901280DD153
:1046400000F0CAFB012809D1FBF792FD07480121C0
:104650004161C460BDE81F4000F038B81FBD0000D4
:1046600049444C4500000000A93B00081800002008
:1046700002488169491C81617047000018000020D0
:1046800010498869104A20B1012008627047401E15
:104690000861086900EB800052F8200000280869D2
:1046A000F5D000EB800002EB800000F108034268C7
:1046B000526842609A4201D152684260D0680860F4
:1046C00070470000180000205C320020094810B537
:1046D000016841F47F010160016841F07F410160A0
:1046E000FFF7ECFE044900200860FBF719FD0020ED
:1046F00010BD000020ED00E01400002010B5FBF715
:1047000037FD00F06DFA18B104494FF08050086091
:10471000BDE810400020FBF732BD000004ED00E0D2
:104720002DE9F0410F4605004FF0000616D04C2051
:10473000FFF798FB040011D005FB07F0401CFFF7C2
:1047400091FB206038B1C4E90F570121204600F0E9
:104750007FF8264602E02046FFF790FE3046BDE88F
:10476000F0812DE9FF43002683B098468946044630
:104770003746FFF76BFEA06B20B349462046E5683D
:10478000FFF7B4F9B8F1000F0FD0E560606A30B1FF
:1047900004F1240000F084FA08B1FFF799FEFFF756
:1047A00063FE012007B0BDE8F083A06B401EA0634C
:1047B00020690028F3D004F1100000F071FA0128FC
:1047C000EBD0ECE7059808B11EB106E0FFF74CFE10
:1047D0001DE06846FFF71EFF0126FFF745FEFFF7C5
:1047E00047FFFFF733FE606C401C00D16764A06C8C
:1047F000401C00D1A764FFF737FE05A9684600F00A
:10480000F7F830B12046FFF7FBFA00F075FA002008
:10481000C8E7FFF71BFEA06B90B10025FFF724FE51
:1048200085B104F124000599FFF7C2FE2046FFF789
:10483000E7FA00F061FA00289BD1FFF749FE98E7FC
:104840000125EBE72046FFF7DBFA00F055FA90E789
:1048500070B50D460446FFF7F9FDD4E90F12206844
:1048600001FB020060600020A0632068A060014698
:10487000E06B401E00FB0210E0604FF0FF30606410
:10488000A06404F110004DB1FFF7AEFD04F1240067
:10489000FFF7AAFDFFF7E8FD012070BD216900299F
:1048A000F8D000F0FDF90128F4D1FFF711FEF1E78F
:1048B0002DE9FF43002683B09846894604463746D3
:1048C000FFF7C4FDA06BE16B884206D3B8F1020F7D
:1048D00003D00598B0B1C6B11BE042464946204618
:1048E000FFF718F9606A38B104F1240000F0D8F934
:1048F000012801D1FFF7ECFDFFF7B6FD012007B05D
:10490000BDE8F083FFF7B0FD1DE06846FFF782FECB
:104910000126FFF7A9FDFFF7ABFEFFF797FD606CDF
:10492000401C00D16764A06C401C00D1A764FFF755
:104930009BFD05A9684600F05BF830B12046FFF703
:104940005FFA00F0D9F90020D9E7FFF77FFDA06BEF
:10495000E16B884201D1012500E00025FFF784FDCD
:1049600075B104F110000599FFF722FE2046FFF70C
:1049700047FA00F0C1F90028A2D1FFF7A9FD9FE78F
:104980002046FFF73DFA00F0B7F999E72DE9F0412D
:104990001F46154688460446FBF7EAFB0646A06B11
:1049A000E16B884208D3022F06D000243046FBF783
:1049B000E6FB2046BDE8F0813A4641462046FFF737
:1049C000A9F8A06C401C04D0A06C401CA064012479
:1049D000ECE7606A0028FAD004F1240000F060F9E6
:1049E0000028F4D0002DF2D001202860EFE700006D
:1049F00070B50D460446FFF729FD0E49CA682868C0
:104A0000431C0FD02368496A8B4202D061689142EF
:104A10000AD96168511A814206D2401A286020469C
:104A2000FFF7F8FD002400E00124FFF71DFD2046FC
:104A300070BD0000180000202DE9FF5F9B46DDE9F6
:104A40000E6815468A464820109FFFF70BFA0400AF
:104A500009D0A8008146E7B338462063D0B3A52229
:104A60004946FBF7B7FB002C74D06FF0030101EB54
:104A70008501206B3546084420F007075146002089
:104A800022180B5C82F834300A5C12B1401C1028EA
:104A9000F6D34FF0000984F84390052D00D3042588
:104AA000201DE562FFF7ABFC04F11800FFF7A7FC3F
:104AB0002461C5F105016462A161C4F844905A46BD
:104AC00038460099FFF718FA2060B8F1000F04D0BB
:104AD00001E00FE011E0C8F80040FFF7B7FC314FEC
:104AE000B868401CB8603868DFF8BC8050B178699D
:104AF00088B336E0FFF7B6F9AFE72046FFF7BEFC14
:104B00000024B0E73C60B86801282AD1002505EBF5
:104B1000850108EB8100FFF767FC6D1C052DF6D3BE
:104B200021486430FFF760FC1F487830FFF75CFCD9
:104B30001D488C30FFF758FC1B48A030FFF754FC91
:104B40001948B430FFF750FC17486430386314300C
:104B5000786306E023E0FFE73868C06AB04200D817
:104B60003C60B86A401CB862E06A3969884200D982
:104B7000386100EB800108EB8100211DFFF75AFC32
:104B80000124FFF771FC786928B13868C06AB04227
:104B900001D2FFF79DFC04B02046BDE8F09F4FF026
:104BA000FF34F8E7180000205C3200200548416916
:104BB00019B1806918B102207047002070470120A8
:104BC000704700001800002010B5FFF73FFC0348B5
:104BD000C468FFF749FC204610BD00001800002003
:104BE0002DE9F0472C4E0027B06928B1F069401C30
:104BF000F0613846BDE8F087F068401CF060F56869
:104C00004FF0FF3975B9306B716B31637063706A47
:104C1000401C7062306B0068E8B1306BC068C068DF
:104C20004068F062F06ADFF87480854209D3306B27
:104C3000006890B1306BC068C468606885420ED26D
:104C4000F0623068C06A00EB800158F8210001284A
:104C5000CFD90127CDE74846E3E74846F0E7201DD6
:104C6000FFF7B0FBA06A18B104F11800FFF7AAFB28
:104C7000E06A3169884200D9306100EB800108EBBD
:104C80008100211DFFF7D6FBE06A3168C96A8842BE
:104C9000CDD30127CBE70000180000205C320020B4
:104CA00070B5C068C46804F118000646FFF78AFBB7
:104CB0000F4DA86910B131460E480EE0201DFFF7D8
:104CC00081FBE06A2969884200D92861094900EB23
:104CD00080008C3901EB8000211DFFF7ABFBE06AFF
:104CE0002968C96A884201D3012070BD002070BDC7
:104CF00018000020E83200202DE9F04700273D464B
:104D0000FFF7A4FB234EB069401EB061B069E0BB61
:104D1000B0682149C8B3A1F18C098846D8F80010C1
:104D2000E1B1D8F80C00C46804F11800FFF74AFBA1
:104D3000201DFFF747FBE06A3169884200D93061E6
:104D400000EB800109EB8100211DFFF773FBE06A96
:104D50003168C96A8842E1D30125DFE7F06938B9D3
:104D600009E0FFF73DFF00B10125F069401EF06149
:104D7000F0690028F5D1012D02D0306A012804D154
:104D8000002001273062FFF7A3FBFFF76DFB3846D9
:104D9000BDE8F08718000020E83200202DE9F04738
:104DA0001E46DDF8209017460D00804612D02820C0
:104DB000FFF758F804000AD0FEF74CFEC4F8008054
:104DC000C4E90657C4E90869201DFFF718FB20460F
:104DD000BDE8F0870024FAE71FB50024FEF73AFE8D
:104DE0000948006860B100200121CDE9001002905F
:104DF00003460390802205A10648FFF71DFE0446E6
:104E000004B0204610BD000050000020546D7220F8
:104E100053766300D93D0008FEB5104D1F4603468A
:104E20002C680020089E002C08D08DE80E0037B1B9
:104E300000233A4669462046FFF7A8FDFEBDFFF76E
:104E4000B5FE01284FF0000305D00022694628680E
:104E5000FFF72EFDFEBD3246F8E7000050000020AF
:104E60000000000000000000000000000000000042
:104E70003F40000000000000000030004000300013
:104E80004000000009000BC03D000BC03D000900C0
:104E900018C024407FE0224031800000180024C068
:104EA0001B000D803240018003801C4027401C8085
:104EB00007400040100060000000000000000000FB
:104EC0000000000000001F80204040200000402023
:104ED00020401F8000000000090006001F8006001F
:104EE00009000000040004003F80040004000000EA
:104EF000001000600000000000000000040004003A
:104F00000400040004000000000000400000000055
:104F100000000000002001C0060038004000000032
:104F20001F802040204020401F80000000001040D3
:104F30003FC000400000000018C021402240244033
:104F40001840000010802040244024401B800000B6
:104F500002000D0011003FC0014000003C802440D1
:104F600024402440238000001F80244024403440FB
:104F7000038000003000200027C03800200000001F
:104F80001B802440244024401B8000001C0022C0C1
:104F9000224022401F800000000000000840000066
:104FA000000000000000000004600000000000009D
:104FB000000004000A0011002080404009000900A0
:104FC0000900090009000000000040402080110095
:104FD0000A000400180020002340240018000000EC
:104FE0001F802040274029401F400000004007C08C
:104FF00039000F0001C0004020403FC02440244041
:105000001B8000001F802040204020403080000096
:1050100020403FC0204020401F80000020403FC073
:1050200024402E4030C0000020403FC024402E00CD
:10503000300000000F00108020402240338002002A
:1050400020403FC0040004003FC0204020402040DA
:105050003FC02040204000000060202020203FC0B2
:105060002000200020403FC024400B0030C02040E2
:1050700020403FC020400040004000C03FC03C00F6
:1050800003C03C003FC0000020403FC00C40230054
:105090003FC020001F802040204020401F80000093
:1050A00020403FC024402400180000001F80214001
:1050B000214020E01FA0000020403FC024402600E7
:1050C00019C0004018C02440244022403180000014
:1050D000300020403FC020403000000020003F80D2
:1050E000004000403F80200020003E0001C007003B
:1050F00038002000380007C03C0007C0380000001E
:10510000204039C0060039C020400000200038404F
:1051100007C0384020000000304021C02640384001
:1051200020C00000000000007FE040204020000080
:10513000000070000C0003800040000000004020D0
:1051400040207FE000000000000020004000200020
:1051500000000000001000100010001000100010EF
:10516000000000004000000000000000000002807D
:105170000540054003C0004020003FC004400440FB
:10518000038000000000038004400440064000004B
:1051900000000380044024403FC000400000038022
:1051A0000540054003400000000004401FC02440AB
:1051B00024402000000002E0055005500650042065
:1051C00020403FC00440040003C0004000000440F1
:1051D00027C000400000000000100010041027E06D
:1051E0000000000020403FC00140070004C0044010
:1051F000204020403FC000400040000007C00400A5
:1052000007C0040003C00000044007C004400400BD
:1052100003C00040000003800440044003800000FD
:10522000041007F0045004400380000000000380D5
:105230000440045007F00010044007C0024004007E
:1052400004000000000006400540054004C00000C6
:10525000000004001F80044000400000040007809C
:105260000040044007C000400400070004C0018063
:1052700006000400060001C0070001C0060000008F
:10528000044006C0010006C00440000004100710DE
:1052900004E00180060004000000044005C0064050
:1052A000044000000000000004007BE040200000FB
:1052B000000000000000FFF000000000000040209F
:1052C0007BE004000000000040008000400020005F
:1052D000200040000000000000000000000000006E
:1052E000000000000000000000001FCC000C0000C7
:1052F00000000000000008003000600008003000DE
:1053000060000000022003FC1E20022003FC1E207F
:105310000220000000000E1811043FFF10840C78DA
:10532000000000000F0010840F3800C007781884B8
:105330000078000000780F8410C411240E9800E457
:1053400000840008080068007000000000000000F1
:105350000000000000000000000007E01818200412
:1053600040020000000040022004181807E000007E
:10537000000000000240024001800FF00180024066
:10538000024000000080008000800FF80080008054
:10539000008000000001000D000E00000000000071
:1053A000000000000000008000800080008000807D
:1053B000008000800000000C000C000000000000D5
:1053C00000000000000000060018006001800600D8
:1053D00018002000000007F0080810041004080856
:1053E00007F000000000080408041FFC000400048B
:1053F0000000000000000E0C101410241044118452
:105400000E0C000000000C18100411041104128886
:105410000C700000000000E00320042408241FFC9E
:105420000024000000001F9810841104110410884B
:1054300010700000000007F008881104110418889B
:105440000070000000001C00100010FC13001C0085
:105450001000000000000E38114410841084114424
:105460000E38000000000700088C10441044088823
:1054700007F00000000000000000030C030C000017
:105480000000000000000000000101060000000014
:105490000000000000000080014002200410080805
:1054A000100400000220022002200220022002201C
:1054B000022000000000100408080410022001402F
:1054C0000080000000000E001200100C106C108014
:1054D0000F00000003E00C1813E4142417C408287C
:1054E00007D000000004003C03C41C40074000E457
:1054F000001C000410041FFC1104110411040E8888
:105500000070000003E00C181004100410041008D0
:105510001C10000010041FFC1004100410040808E4
:1055200007F0000010041FFC1104110417C410043C
:105530000818000010041FFC1104110017C010000F
:105540000800000003E00C181004100410441C783C
:105550000040000010041FFC1084008000801084B4
:105560001FFC10040000100410041FFC10041004A1
:105570000000000000030001100110011FFE1000D8
:105580001000000010041FFC110403801464181C98
:105590001004000010041FFC1004000400040004A8
:1055A000000C000010041FFC1F0000FC1F001FFC6B
:1055B0001004000010041FFC0C04030000E010188D
:1055C0001FFC100007F0080810041004100408085D
:1055D00007F0000010041FFC108410801080108061
:1055E0000F00000007F0081810241024101C080AEF
:1055F00007F2000010041FFC1104110011C011304B
:105600000E0C000400000E1C1104108410841044C1
:105610001C3800001800100010041FFC10041000BB
:105620001800000010001FF810040004000410040B
:105630001FF8100010001E0011E0001C0070138005
:105640001C0010001FC0103C00E01F0000E0103CD8
:105650001FC000001004180C163401C001C016341D
:10566000180C100410001C00130400FC13041C0090
:10567000100000000804101C1064108413041C04A3
:10568000101800000000000000007FFE40024002F1
:1056900040020000000030000C0003800060001C8D
:1056A0000003000000004002400240027FFE0000B4
:1056B000000000000000000020004000400040000A
:1056C00020000000000100010001000100010001B4
:1056D0000001000100004000400020000000000028
:1056E000000000000000009801240144014401442E
:1056F00000FC000410001FFC008801040104008865
:105700000070000000000070008801040104010422
:1057100000880000000000700088010401041108E6
:105720001FFC0004000000F801440144014401444E
:1057300000C800000000010401040FFC1104110462
:1057400011001800000000D601290129012901C912
:105750000106000010041FFC008401000100010488
:1057600000FC000400000104190419FC00040004FA
:10577000000000000000000300010101190119FEF2
:105780000000000010041FFC0024004001B4010CC4
:10579000010400000000100410041FFC00040004B9
:1057A00000000000010401FC0104010001FC0104EF
:1057B000010000FC010401FC00840100010001045F
:1057C00000FC0004000000F80104010401040104CD
:1057D00000F80000010101FF0085010401040088B8
:1057E0000070000000000070008801040104010541
:1057F00001FF00010104010401FC00840104010017
:1058000001800000000000CC0124012401240124B7
:105810000198000000000100010007F801040104E4
:1058200000000000010001F8000400040004010869
:1058300001FC0004010001800170000C00100160F7
:105840000180010001F0010C003001C00030010CAA
:1058500001F0010000000104018C00740170018C52
:1058600001040000010101810171000E00180160B6
:105870000180010000000184010C01340144018415
:10588000010C0000000000000000000001003EFCD0
:10589000400240020000000000000000FFFF000086
:1058A000000000000000400240023EFC0100000039
:1058B0000000000000006000800080004000400008
:1058C0002000200000000000000000000000000098
:1058D00000000000000000000000000000000000C8
:1058E00000000000000000000000000000000000B8
:1058F000000000000000000F80380FFE380F8038D5
:105900000000000000000000000000000000000097
:1059100000000100000600000C000038000031000B
:10592000000600000C0000380000300000000000FD
:105930000000000061800067F807F98000618000C6
:1059400061800061800061800067F807F980006174
:105950008000000000000000000001C0E003E0F053
:105960000630080418081FFFFE040E080787F0031E
:1059700081E000000000000001F000060C000404BB
:1059800008060C7001F9C0000E00003BE000EC18A6
:10599000070808040C180003E00000000001E00004
:1059A00007F003F818041C0804170807E1D003C027
:1059B000E00023B0003C08002008000010000000B8
:1059C0000000000100003100003200001C00000057
:1059D00000000000000000000000000000000000C7
:1059E00000000000000000000000000000000000B7
:1059F000000000007F0001FFC00780F00C001810BD
:105A0000000420000200000000000020000210003E
:105A1000040C00180780F001FFC0007F00000000A8
:105A20000000000000000000000000000000000076
:105A30004200006600006600003C0000180003FF02
:105A4000C0001800003C0000660000660000420034
:105A50000000000008000008000008000008000026
:105A6000080001FFC000080000080000080000084E
:105A700000000800000000000001000031000032BA
:105A800000001C00000000000000000000000000FA
:105A900000000000000000000000000008000008F6
:105AA00000000800000800000800000800000800CE
:105AB00000080000080000080000000000000000CE
:105AC000000000003800003800003800000000002E
:105AD00000000000000000000000000000000000C6
