:020000040800F2
:10000000884C00208D010008B7060008B5050008DF
:10001000B5060008BD030008AD0D00080000000093
:1000200000000000000000000000000001010008C6
:1000300017040008000000003501000869200008CE
:10004000A7010008A7010008A7010008A7010008F0
:10005000A7010008A701000819040008A70100086B
:10006000A7010008A7010008A7010008BF030008B6
:10007000C1030008C3030008C5030008C903000842
:10008000CB030008CD030008A7010008A701000862
:10009000A7010008A7010008A7010008A7010008A0
:1000A000A7010008A7010008A7010008A701000890
:1000B000A7010008A7010008A7010008A701000880
:1000C000A7010008A7010008A7010008A701000870
:1000D000A7010008E90B0008A7010008A701000814
:1000E000A7010008A7010008A7010008DFF80CD04D
:1000F00000F018F900480047850E0008884C0020E1
:100100001A4B19680868B0E8F00F80F309884FF0BF
:10011000000080F311884EF00D0E704700000000C3
:1001200003480068006880F3088862B600DF00BFFB
:1001300008ED00E0EFF309800C4B1A6820E9F00F9E
:10014000106008B54FF0BF0080F3118801F04AFF3E
:100150004FF0000080F31188BDE808401968086876
:10016000B0E8F00F80F30988704700BF1800002046
:10017000EFF311804FF0BF0181F31188704780F3D6
:1001800011887047EFF305807047000006488047EC
:1001900006480047FEE7FEE7FEE7FEE7FEE7FEE76C
:1001A000FEE7FEE7FEE7FEE7990B0008ED0000081A
:1001B00040EA01039B0703D009E008C9121F08C0E9
:1001C000042AFAD203E011F8013B00F8013B521E69
:1001D000F9D27047D2B201E000F8012B491EFBD2E0
:1001E00070470022F6E710B513460A460446194642
:1001F000FFF7F0FF204610BD0EB5C10F80EAE0709A
:100200000844CA07002140F233438DE80E000A4635
:100210000B4600F038F803B000BDC1F30A5210B528
:10022000C1F3130140F2FF3341F480119A4201DA25
:10023000002010BD40F233439A42A2F2334203DC65
:10024000524200F003F810BD904010BD202A04DB9C
:10025000203A21FA02F00021704721FA02F3D0403F
:10026000C2F12002914008431946704710B5002B97
:1002700008DA401C41F1000192185B411A4301D198
:1002800020F0010010BD2DE9F04D92469B4611B1C2
:10029000B1FA81F202E0B0FA80F22032904600F02A
:1002A00053F804460F4640EA0A0041EA0B01534660
:1002B0005A46084313D0114653EA010019D0C8F139
:1002C00040025046FFF7C2FF05460E4650465946CB
:1002D000424600F039F8084305D0012004E02046EA
:1002E0003946BDE8F08D0020054346EAE0762C4310
:1002F00037430A986305E40AA0EB08000022FD0AD0
:1003000044EA47540A3002D500200146E9E70105D6
:1003100010196941DDE9084500196941BDE8F04D52
:10032000A4E70000064C074D06E0E06840F001033A
:1003300094E8070098471034AC42F6D3FFF7DAFE92
:100340003827000858270008202A04DB203A00FA42
:1003500002F1002070479140C2F1200320FA03F31C
:1003600019439040704770B58C1810F8015B15F078
:10037000070301D110F8013B2A1106D110F8012B17
:1003800003E010F8016B01F8016B5B1EF9D12B073C
:1003900005D40023521E0DD401F8013BFAE710F8F2
:1003A000013BCB1A921C03E013F8015B01F8015BDF
:1003B000521EF9D5A142D8D3002070BDFEE7704788
:1003C0007047704701F002BC7047704770470000EB
:1003D000C10002D502490860704702494860704771
:1003E0000404024000000240002904D0016841F0EA
:1003F00001010160704701684FF6FE721140016013
:100400007047002A03D002680A43026070470268FE
:100410008A4302607047704700F013BD01490860CD
:10042000704700001404014001460020054A12688C
:100430000A40044B14331B680B4202D0002A00D040
:10044000012070470004014030B51B4A83790168E0
:10045000002B2AD013688B431360111D0B680468AE
:10046000A3430B60017911440B68046823430B60BC
:10047000114C08342168036899432160231D1968D1
:100480000568A94319604179102905D011440A680B
:10049000006802430A6030BD216802681143216090
:1004A000196800680143196030BD00791044026882
:1004B0008A43026030BD00000004014010B58A0785
:1004C000120F0F23934021F00304054921448C6847
:1004D0009C438C608B68904003438B6010BD000090
:1004E000000001402DE9F0410022CC7804F00F0318
:1004F000E40601D58C7823430C784FF00F0714F0F5
:10050000FF0F4FF0010C1CD005680CFA02F40E88A6
:100510002640A64211D1960007FA06F825EA0805FA
:1005200003FA06F848EA0505CE78282E02D0482EB0
:1005300002D002E0446100E00461521C082AE4D3C6
:1005400005600A88FF2A1ED94568002202F10806C4
:100550000CFA06F40E882640A64210D1960007FA3F
:1005600006F825EA080503FA06F848EA0505CE78F4
:10057000282E00D14461CE78482E00D10461521C4F
:10058000082AE3D34560BDE8F0814161704701610D
:100590007047000001460020054A52F820308B4287
:1005A00004D0401C0928F8D34FF0FF3070470000FA
:1005B000C8000020FEE700002DE9F8431D4D287813
:1005C000002835D100F0B0FA00211B4C05F10806D7
:1005D0004A1E46F82120002001EBC10304EB8303EF
:1005E00043F82020401C0928FAD3491C0229F0DBDB
:1005F0000024104E114F4FF47A7810362346002213
:1006000041460FA0009702F02DF846F82400641C24
:10061000022CF3DB03220021012001F037FD68608A
:1006200020B100231A46194601F0F4FD012028707C
:10063000BDE8F883B0000020B047002001090008A1
:100640006C656473657154696D65720070B50546BB
:100650000846FFF79FFF0446002C25DB134E0023BE
:100660005A1E1946706801F032FD114A05EBC501AA
:1006700002EB8101002041F82400284600F076FBBF
:1006800000231A461946706801F0C4FD06F10800FF
:1006900050F82500A04207D106F1100050F82500BF
:1006A000BDE8704000F02CB970BD0000B000002023
:1006B000B0470020FEE7704770B50F23C2780126CF
:1006C0000178002A1ED0144A126802F4E062C2F5D2
:1006D000E062120AC2F10404D3404578A540827852
:1006E0001A402A43120101F1E02181F80024007828
:1006F00000F01F018E404009800000F1E020C0F8AA
:10070000006170BD01F01F0086404809800000F1C3
:10071000E020C0F8806170BD0CED00E002490843A4
:1007200002490860704700000000FA050CED00E087
:1007300030B587B000220121282001F0A7FC3B4CF6
:10074000E06000220121292001F0A0FC20610022AC
:100750002121022001F09AFC606103220021012086
:1007600001F094FCA06020B100231A46194601F064
:1007700051FDE068F0B32069E0B30121052000F0ED
:100780005BF80121880300F057F803208DF81A0068
:100790004FF40070ADF8180018208DF81B00244CA1
:1007A00006A92046FFF79EFE2015ADF8180004208C
:1007B0008DF81B0006A92046FFF794FE4FF4E130A8
:1007C00002900020ADF80C00ADF80E00ADF810005E
:1007D000ADF814000C20ADF81200164C02A920460A
:1007E00000F05EFA4FF4A060FFF798FF25208DF827
:1007F000040000E015E001208DF8050007218DF8C8
:1008000006108DF8070001A8FFF756FF012240F2FD
:100810002551204600F028FA0121204600F0EEF98B
:1008200000E0002507B0284630BD00003802002057
:100830000008014000380140054A002903D09169B1
:100840000143916170479169814391617047000054
:100850000010024010B5264A516801F00C01254BEA
:10086000002927D0042927D0082927D00360516800
:1008700001F0F0010909204B5C5C0168E140416036
:10088000546804F4E064240A1C5D21FA04F48460D2
:10089000546804F46054E40A1B5DD940C160526896
:1008A00002F44042920B144B1B1F9A5CB1FBF2F115
:1008B000016110BD0360DAE70360D8E7516801F415
:1008C0007011536803F48033022404EB914133B177
:1008D00053689B0307D5094B59430160C7E7074B92
:1008E00059430160C3E7034B59430160BFE7000070
:1008F0000010024000127A006C02002000093D0046
:100900002DE9F14F82B0029800F0C2FF08B1012733
:1009100000E000274FF00008DFF8B4904FF0FF3AF6
:10092000C3462B48083050F82740601C4DD029485A
:1009300007EBC70100EB8106254956F82400183162
:1009400051F8241001EBC005401C46F82400002398
:1009500052461946D9F8040001F0B9FB686810F155
:10096000020F07D0504508D146F824A0384600F0C1
:10097000FDF920E046F824B01DE02978384600F063
:10098000EFF86868B8B1FFF737FCFFF746FC02469E
:1009900000230221CDF800B0029801F0A3FE01F07F
:1009A0006FFD024600231946CDF800B0029801F011
:1009B00099FE4FF0010800231A461946D9F80400A1
:1009C00001F028FCB8F1000FABD0BDE8FE8F0000AD
:1009D000B0000020B0470020002904D0018841F079
:1009E000400101807047018821F04001018070477B
:1009F0000246002012890A4200D0012070478089F7
:100A000070478181704730B5028802F441530A88EB
:100A10004C88CD8822438C882C4322430C89224366
:100A20004C8922438C892243CC8922431A43028079
:100A3000828B22F400628283098A018230BD00F039
:100A400001B800000CB5002201920092274801680D
:100A500041F4803101604FF4A063016801F400317A
:100A600000910199491C0191009911B9019999428C
:100A7000F3D10168890302D50121009100E00092C1
:100A80000099012930D11A490A6842F010020A601F
:100A90000A6822F003020A600A6842F002020A6051
:100AA0004168416041684160416841F48061416052
:100AB000416821F47C114160416841F4E8114160D2
:100AC000016841F08071016001688901FCD54168CD
:100AD00021F003014160416841F002014160416839
:100AE000C1F381010229FAD10CBD000000100240BF
:100AF0000020024070B505460A4C02212046FFF74F
:100B000077FF0028F9D029462046FFF77AFF012118
:100B10002046FFF76DFF0028F9D02046FFF76FFF52
:100B2000C0B270BD0030014038B501210820FFF788
:100B300083FE4FF44074ADF8004010208DF80300A0
:100B400003208DF80200054D69462846FFF7CAFCD0
:100B500021462846FFF71BFD38BD0000000C014070
:100B60000B4602210B4A002802D0012803D004E0E2
:100B70004FF4007101E04FF48071022809D0012B7D
:100B800004D0002B05D11046FFF701BD1046FFF73A
:100B9000FCBC7047000C014010B50F48016841F0E3
:100BA0000101016041680D4A1140416001680C4A31
:100BB00011400160016821F480210160416821F445
:100BC000FE0141604FF41F018160FFF738FF0549C6
:100BD0004FF00060086010BD001002400000FFF8F8
:100BE000FFFFF6FE08ED00E001F00EB840F66A12D5
:100BF0000A0A01219140C94301807047002904D0AD
:100C0000818941F4005181817047818921F400512B
:100C100081817047002A03D0828A0A43828270470A
:100C2000828A8A438282704770B5002440F66A1235
:100C3000C1F3421301F01F05012606FA05F2012B4C
:100C40000CD0022B0DD0838A1340090A8E400088F5
:100C500030400BB100B10124204670BD83891340A0
:100C6000F3E7038A1340F0E710B540F66A13C1F3C7
:100C7000421301F01F040121A140012B07D0022BD8
:100C800007D014303AB102680A43026010BD0C303C
:100C9000F8E71030F6E702688A43026010BD0000F2
:100CA00030B585B004460D46208A4CF6FF710840E9
:100CB000E98801432182A0894EF6F3110840A988F2
:100CC0002A8911436A8902431143A181A08A4FF600
:100CD000FF410840A9890143A1826846FFF7BAFD98
:100CE0001D48844201D1039800E00298A1890904BB
:100CF00008D500EBC00101EB001029684900B0FBEA
:100D0000F1F007E000EBC00101EB00102968890059
:100D1000B0FBF1F06422B0FBF2F109010B096FF0B6
:100D200018056B4300EB8300A3891D044FF03203C9
:100D300007D503EBC000B0FBF2F000F0070008435A
:100D400006E003EB0010B0FBF2F000F00F000843E8
:100D5000208105B030BD0000003801408088C0F31C
:100D600008007047C1F308018180704770B50446E0
:100D70000C4D4FF0FF3045F8240000212046FFF7CE
:100D8000EFFE0021084A04EBC40002EB800252F897
:100D900021305B1C02D045F8241070BD491C092984
:100DA000F5D370BDB8000020B0470020FEE702E098
:100DB00008C8121F08C1002AFAD1704770470020E6
:100DC00001E001C1121F002AFBD1704710B5074C8A
:100DD0002078002809D100F0A7FDFFF7A9FC00F05A
:100DE0000FFF00F005F80120207010BD1402002054
:100DF00070B50546094C6168002902D009680020D9
:100E000088470DB1656002E0044814306060606896
:100E10000168BDE8704001200847000088000020FC
:100E200008B506208DF800000D208DF801000F2078
:100E30008DF8020001208DF803006846FFF73CFCA6
:100E400008BD10B50120FFF7EFFA012806D100F028
:100E500087F8BDE810400120FFF7E0BA10BD0000A0
:100E600008B500200090064800236A4619464068ED
:100E700001F036FA0098002801D000F0EDFF08BD1F
:100E800060000020FFF798FB00F064FE01F07CF8A2
:100E9000FEE73220704700001CB50EA003C8CDE964
:100EA000000105226946102000F082F905226946FA
:100EB000102000F05DF8002069460A5CA52A03D1E5
:100EC000401CC0B20528F8D3052801D000201CBD65
:100ED00001201CBDA5A5A5A5A500000070B5094C65
:100EE00010212046FFF751FB5020FFF703FE054677
:100EF0007320FFF7FFFD10212046FFF748FB28462F
:100F000070BD00000008014070B5094C102120465A
:100F1000FFF73BFBE220FFF7EDFD0546FF20FFF763
:100F2000E9FD10212046FFF732FB284670BD000086
:100F30000008014070B5094C10212046FFF725FB41
:100F4000E120FFF7D7FD0546FF20FFF7D3FD102175
:100F50002046FFF71CFB284670BD0000000801403A
:100F600002480068002800D0004770476402002053
:100F70002DE9F04107460E4614460025DFF834807F
:100F800010214046FFF701FB07F01F00FFF7B2FDFD
:100F9000074605E00020FFF7ADFD7055641CE4B284
:100FA000A542F7D310214046FFF7F1FA3846BDE8D5
:100FB000F08100000008014008B501226946FFF7F2
:100FC000D7FF9DF8000008BD70B5094C10212046E0
:100FD000FFF7DBFA6020FFF78DFD0020FFF78AFDA9
:100FE000054610212046FFF7D2FA284670BD0000C2
:100FF000000801402DE9F04105460E46DFF8348037
:1010000010214046FFF7C1FA6120FFF773FD074644
:10101000002405E00020FFF76DFD2855641CE4B2B4
:10102000B442F7D310214046FFF7B1FA3846BDE885
:10103000F0810000000801407E2803D2014605200F
:1010400000F006B97047002805D0012807D10F210C
:10105000062000F0FDB80721062000F0F9B870471F
:10106000054A002803D002211046FFF790BA02215A
:101070001046FFF78ABA0000000C014001490860E1
:1010800070470000640200200522012800D90122D7
:101090000A30C0B200F08CB805220146102000F0E2
:1010A00087B800002DE9F04188B001210C20FFF73E
:1010B000C3FB01210803FFF7BFFB01210846FFF72F
:1010C000BBFBA020ADF8000018208DF80300032022
:1010D0008DF80200334F69463846FFF703FA402087
:1010E000ADF8000004248DF8034069463846FFF748
:1010F000F9F91025ADF800508DF8035069463846CF
:10110000FFF7F0F90220ADF800008DF80350DFF88A
:10111000988069464046FFF7E5F90126ADF8006082
:101120008DF8034069464046FFF7DCF900210120B5
:10113000FFF7C4F9019600248DF808400C208DF8C3
:1011400009008DF80A6001A8FFF77EF9FFF768FE35
:1011500010213846FFF71BFA02214046FFF715FA27
:10116000ADF80C404FF48270ADF80E00ADF81040B1
:10117000ADF81240ADF814406801ADF81600ADF8B6
:101180001850ADF81A400720ADF81C00074C03A911
:101190002046FFF738FC01212046FFF71DFC08B070
:1011A000BDE8F08100080140000C01400030014022
:1011B0002DE9F04107460E4614460025DFF834803D
:1011C00010214046FFF7E1F907F01F0040F0200032
:1011D000FFF790FC074604E0705DFFF78BFC641C92
:1011E000E4B2A542F8D310214046FFF7D0F93846C3
:1011F000BDE8F081000801402DE9F04705460E46A4
:101200000024DFF8448002214046FFF7BEF9DFF8F2
:101210003C9010214846FFF7B8F9A020FFF76AFC80
:10122000074604E0285DFFF765FC641CE4B2B442A5
:10123000F8D310214846FFF7AAF902214046FFF7EC
:10124000A6F93846BDE8F087000C014000080140CF
:1012500013B5012201A9FFF7ABFF1CBD70B5044611
:101260000B4D28684460E868844206D22968686BA0
:10127000091DBDE8704000F087BD2968286B091D75
:1012800000F082FDE86A844200D2EC6270BD00008A
:101290001800002070B506460D46482000F0B0FA50
:1012A000044644B1B60045B12846206348B1A522A2
:1012B0003146FEF78FFF204670BD304600F0A0FAA1
:1012C000F3E7204600F09EFD0024F4E710B500F09F
:1012D0007FFD0C4C206880B90B4800F047FD0A48A0
:1012E000143000F043FD0848A0601430E060002294
:1012F0000C21142000F0CAFE2060BDE8104000F070
:1013000075BD0000500000204447002070B5124E0B
:10131000124D1CE000F05EFE306820B1002401F0A8
:101320004BF9A4B901E00124F9E700F051FDF068A0
:10133000C468201D00F008FDA868401EA860686809
:10134000401E686000F052FD204600F04AF86868D0
:101350000028DFD170BD00001C47002018000020CD
:1013600030B40C460368002B0CD0026CC1681144E9
:10137000C1604568A94200D3C360C168204630BC43
:10138000FEF716BF30BC704770B504461546226C98
:10139000002A22D07DB1E068FEF70AFFE168206CE8
:1013A000091AE1602268914202D26168081AE0607D
:1013B000022D0DD011E0A068FEF7FAFE216CA068A6
:1013C0000844A0606168884207D32068A06004E0F8
:1013D000A06B10B1A06B401EA063A06B401CA0636B
:1013E00070BD10B50446206B00F00CFD2046BDE832
:1013F000104000F007BD000007498A681168002905
:1014000004D00021016019B1002070470121F9E7E3
:10141000D068006870470000500000200C4820F0A1
:1014200007010C4801600023436044F2F83008448F
:101430000838084A0C3A10604360036044F2F03305
:101440004B600860506808385060D806906070475C
:10145000840200200C000020044CFFF757FF206896
:101460000128FAD900F0F8FCF7E700007C460020DC
:1014700070B5044615460023E218C85C82F83400B3
:10148000C85C10B15B1C102BF6D3002684F84360B7
:10149000052D00D30425E562201D00F072FC04F147
:1014A000180000F06EFC2461C5F10500A0616462C3
:1014B000666470BD70B50024124D04EB840005EB2A
:1014C000800000F053FC641C052CF6D30D486430FA
:1014D00000F04CFC0B48783000F048FC09488C3098
:1014E00000F044FC0748A03000F040FC0548B43050
:1014F00000F03CFC0349044864310163143141634A
:1015000070BD00007C4600201800002030B5134953
:1015100000E011460A688242FBD34B685C188442A3
:1015200003D140681844486008460D684468231891
:10153000AB420DD1094B0C3B1B689A4206D0526856
:10154000224442600A681268026002E0036000E020
:101550000260814200D0086030BD00000C00002015
:1015600070B50024416000610C4D91420AD8D11A37
:101570008269914201D301240EE0011DE86800F068
:1015800003FC09E09A4203D2994201D3012403E00B
:10159000011DA86800F0F8FB204670BD5000002037
:1015A00010B5044600F014FCA06B20B1002400F03C
:1015B0001DFC204610BD0124F9E710B5044600F0DB
:1015C00007FCA06BE16B884201D1012400E00024FC
:1015D00000F00CFC204610BDF8B505460E4610483C
:1015E0008068C068C468201D00F0AEFBE069012877
:1015F00010D1A0692B46411932462046FFF7B0FFB3
:10160000012807D100200346014600902A462046C3
:1016100001F068F8616A01B02046BDE8F040084773
:101620005000002030B585B0214D37E0049C606942
:1016300010B1201D00F088FB01A800F061F80246FF
:10164000029830B1012829D002281CD0032825D1C6
:1016500021E00398A169034601442046FFF780FF7B
:1016600001281BD1616A20468847E069012815D10D
:10167000002000900398A1690023421819462046D3
:1016800001F030F80AE00398A06181181346204663
:10169000FFF766FF02E0204600F0B4FB00231A4685
:1016A00002A9286800F013FD0028BFD105B030BDA5
:1016B00050000020F8B505460E4600F08BFC684649
:1016C00000F01EF80446009810B100F075FFF8BD58
:1016D00046B9A54206D800F06FFF21462846FFF71D
:1016E0007BFFF8BD0548291B006800F0C1FB00F036
:1016F00063FF0028F5D100F0AFFBF8BD50000020DB
:1017000070B5054600F0BCFE0446074E7068844282
:1017100004D200F00BF80120286001E000202860CE
:101720007460204670BD000050000020F8B5154ED2
:101730001EE0C0680568C468201D00F005FB616AF2
:1017400020468847E069012812D1A0692844A842B0
:1017500006D960602461211DB06800F015FB07E028
:1017600000200346014600902A46204600F0BAFFBA
:10177000B06801680029DCD1B068F168B160F06040
:10178000F8BD00005000002008B56846FFF734FEA1
:101790000099FFF78FFFFFF745FFF6E770B50446A6
:1017A00000F016FB04F124050AE0606A58B12846EF
:1017B00000F0D4FE08B100F0A7FBA06C401EA064AE
:1017C000A06C0028F1DC4FF0FF35A56400F00EFBA3
:1017D00000F0FEFA04F110060AE0206958B1304624
:1017E00000F0BCFE08B100F08FFB606C401E60642E
:1017F000606C0028F1DC6564BDE8704000F0F6BA6A
:101800002DE9F0410546002600F0E4FB1F4F386843
:1018100008B9FFF703FEB868054232D13DB108357B
:10182000680704D005F00700C0F10800054445B37F
:101830007868854225D815490C310846046801E0CE
:10184000214604466068A84202D220680028F7D1E9
:101850003868844215D00E680836206808606068D1
:10186000411B102904D9601941606560FFF74EFEE5
:1018700060687968091A7960B96808436060002077
:10188000206000F099FE3046BDE8F08100000020A5
:10189000006A704720384FF08073C3618161002176
:1018A000416140F82029704710B500F0E9FD054975
:1018B0000969401AB0F5FA6F01D9002010BD012066
:1018C00010BD00006000002010B501460348002351
:1018D0005A1EC06800F0FBFB002010BD6000002015
:1018E00010B504480021806800F063FCBDE810409A
:1018F000FFF720BB6000002010B50146034800231D
:101900001A46806800F086FC002010BD60000020B0
:1019100010B504462046FFF7A3FB024804700020E0
:1019200010BD0000610000201FB5FFF7BBFBFFF7F3
:10193000B3FA00B10120174C20701748FFF79EFB47
:1019400003220021012000F0A1FB606020B10023F0
:101950001A46194600F05EFC00222121032000F007
:1019600095FBE06000222121032000F08FFBA060A6
:10197000032000F01BF800200221CDE900100290A6
:1019800003460390802205A1074800F003FD0120D3
:1019900020701FBD60000020610E00085261646964
:1019A0006F4C696E6B000000A91A00087CB50446F4
:1019B0003AA003C8CDE900013A4D02212846FEF7BE
:1019C000E4FD69460020FFF75FFB6846FFF764FB14
:1019D00001210220FFF73CFC2820FFF72DFB00200F
:1019E000FFF731FB01210846FFF732FC1A210420E2
:1019F000FFF72EFC34B1012C0DD0022C14D0032C97
:101A000047D12CE020211120FFF722FC0F210020DC
:101A1000FFF71EFC3DE020211120FFF719FC0E21ED
:101A20000020FFF715FC34E00024FFF76DFA641C7A
:101A3000032CFADB0024FFF77DFA641C032CFADB8D
:101A40000F210020FFF704FCFFF748FA01211C20BA
:101A5000FFF7FEFB06211D20FFF7FAFB19E000242B
:101A6000FFF752FA641C032CFADB0024FFF762FA3A
:101A7000641C032CFADB0E210020FFF7E9FBFFF7C3
:101A80002DFA01211C20FFF7E3FB06211D20FFF7A3
:101A9000DFFB02212846FEF77AFD7CBDE7E7E7E79A
:101AA000E7000000000C0140274D4FF0FF363DE0FD
:101AB000FFF78AFAA870202802D9FFF725FA0FE06D
:101AC000234620700146581CFFF794FA00231A465B
:101AD0001E49E86800F09EFB1D490120FEF7B6FD97
:101AE0001720FFF769FAC007E2D0184C213411E043
:101AF000164900231A462131A86800F0E8FA207838
:101B0000401C207012490120FEF7A0FD2178601CC6
:101B1000FFF772FB1720FFF74FFA8006E8D5702118
:101B20000720FFF795FB0120FFF79AFA00233246C2
:101B30001946686800F0CBFA00F0A2FC286100208A
:101B4000FFF78EFA014CCBE7600000206C470020C5
:101B5000440100201FB500200221CDE900100290B1
:101B60000346CA01039002A1034800F013FC1FBD05
:101B700053595354454D00007D1B00081FB50F4AB3
:101B800000241470511C10780854401CC0B210700E
:101B90002028F8D3FFF71AF90220CDE900040294B7
:101BA0000023802206A10848039400F0F3FB4FF0C5
:101BB000FF34204600F07AF9FBE700001502002010
:101BC0007461736B31000000E51E000810B50A4C0B
:101BD000002202212046FEF714FC4FF40050FEF7CD
:101BE000F7FB002280210548FFF714F82046BDE8E6
:101BF00010400021FEF7F8BB4400024000380140CD
:101C000000487047500200202DE9FC410025019555
:101C1000254E40F2277739463046FFF705F8234C2A
:101C2000012829D1A278E078824219D2204D30468D
:101C3000A95CFFF797F8A078401CC2B2A270E078C8
:101C4000401E824218DA012A16D92378A95CE85C82
:101C50000844FF21B0FBF1F201FB1200E8540BE055
:101C6000002239463046FEF7FFFF0195002301AA06
:101C70001946A06800F034FB39463046FEF7B6FF3F
:101C800040F225513046FEF7CFFF012809D13046FA
:101C9000FFF764F80090002301AA6946E06800F0AD
:101CA0001FFBBDE8FC810000003801403802002025
:101CB000F847002010B50146064800231A4640693F
:101CC00000F005FA012802D04FF0FF3010BD0020CF
:101CD00010BD00003802002070B50446164DAA2041
:101CE0002870552068706078A8702078E870227895
:101CF000611C281DFEF75CFA104E0120B070002117
:101D000031712078401DF070401EC0B230702954EF
:101D10000B4C29782046FFF725F8012240F2277165
:101D20002046FEF7A1FF00235A1E1946B06800F0B6
:101D3000CEF9002070BD0000F847002038020020D6
:101D40000038014000207047D0E901219160D0E9BE
:101D50000112516001694A68824201D182684A6079
:101D6000002202610868401E0860704700F1080107
:101D700041604FF0FF328260C1600161002101606B
:101D8000704700210161704730B50C68621C02D0B9
:101D900000F1080202E0026904E01A4653681D6877
:101DA000A542FAD953684B6099608A605160086116
:101DB0000168491C016030BD42684A6093688B60CD
:101DC00093685960916008610168491C016070471F
:101DD00010B5FEF7CDF904480168491C0160BFF356
:101DE0004F8FBFF36F8F10BD1400002004490868A7
:101DF000401E0860002801D1FEF7C1B970470000FD
:101E00001400002070B5002818D0083804460C4D86
:101E10006068A968084211D02268002A0ED1884360
:101E2000606000F0D7F86068696808446860204620
:101E3000FFF76CFBBDE8704000F0BEBB70BD00005A
:101E4000000000204FF0E0200249416107210161BC
:101E5000704700003F19010004494FF080500860AE
:101E6000BFF34F8FBFF36F8F7047000004ED00E0AA
:101E700070B504460D46FFF7ABFF626C4FF00000F3
:101E8000521C00D16064A26C521C00D1A064FFF708
:101E9000ADFFA06B20B9294604F1240000F058F8EA
:101EA0002046BDE87040FFF779BC000010B502463F
:101EB0000020002A0DD000F08DF80948C1688C1868
:101EC0000068001DFFF740FF2046FFF7C7F900F04C
:101ED00073FB002803D1BDE81040FFF7BDBF10BD64
:101EE000180000204FF47A7405490020FEF7AEFB7D
:101EF00020210448FFF780F92046FFF7D7FFF3E7DA
:101F000044010020160200200149012008627047A8
:101F10001800002070B50D460B4C21681831FFF7F2
:101F200033FF2068001DFFF70FFF681C05D0E06835
:101F30002844BDE87040FFF791B92168BDE87040C2
:101F4000091D0248FFF738BF180000203047002065
:101F500070B50D46074C21681831FFF72DFF20683A
:101F6000001DFFF7F1FEE0682844BDE87040FFF770
:101F700075B900001800002002494A6A0260C96869
:101F800041607047180000201FB5002400940194A0
:101F90000294234680220BA10C48039400F0FAF926
:101FA000012801D100F07EFB012809D1FEF7E0F8FD
:101FB000074801214161C460BDE81F4000F03CB802
:101FC0001FBD000049444C450000000059140008A2
:101FD0001800002002488169491C81617047000097
:101FE0001800002012498869002802D001200862E8
:101FF0007047104A02E00869401E0861086900EB5A
:10200000800052F820000028F5D0086900EB80001D
:1020100002EB800042685268426000F108039A4275
:1020200001D1526842604068C06808607047000093
:10203000180000207C46002010B50948016841F4D2
:102040007F010160016841F07F410160FFF7FAFE06
:10205000044900200860FEF763F8002010BD00006E
:1020600020ED00E01400002010B5FEF781F800F02C
:1020700013FA18B104494FF080500860BDE81040D1
:102080000020FEF77CB8000004ED00E02DE9F041EF
:1020900005460F460026002D16D04C20FFF7B0FB5A
:1020A00004468CB105FB07F0401CFFF7A9FB20603C
:1020B00038B1E56327640121204600F07AF826460E
:1020C00002E02046FFF79EFE3046BDE8F0812DE994
:1020D000FF4182B0044688461F4600250026FFF7D0
:1020E00077FEA06B20B3E56841462046FFF738F93C
:1020F0007FB1E560606A30B104F1240000F02EFA8F
:1021000008B1FFF7A9FEFFF771FE012006B0BDE898
:10211000F081A06B401EA06320690028F3D004F179
:10212000100000F01BFA0128EDD1FFF795FEEAE759
:10213000049808B125B107E0FFF758FE0020E5E755
:102140006846FFF719FF0125FFF750FEFFF742FF32
:10215000FFF73EFE606C401C00D16664A06C401C22
:1021600000D1A664FFF742FE04A9684600F0EAF831
:1021700030B12046FFF712FB00F01EFA0020C5E741
:102180002046FFF70DFA70B104F124000499FFF71F
:10219000C1FE2046FFF702FB00F00EFA00289ED198
:1021A000FFF75AFE9BE72046FFF7F8FA00F004FA23
:1021B00095E770B504460D46FFF70AFED4E90F1205
:1021C000206801FB020060600020A0632068A0601E
:1021D000E06B226C2168401E00FB0210E0604FF0B3
:1021E000FF306064A06404F110004DB1FFF7BEFD44
:1021F00004F12400FFF7BAFDFFF7F8FD012070BDE0
:1022000021690029F8D000F0A9F90128F4D1FFF7DD
:1022100023FEF1E72DE9FF4182B0044688461F46C0
:1022200000250026FFF7D4FDA06BE16B884205D3A3
:10223000022F03D00498B0B1CDB11CE03A4641461C
:102240002046FFF7A1F8606A38B104F1240000F0DD
:1022500085F9012801D1FFF7FFFDFFF7C7FD012038
:1022600006B0BDE8F081FFF7C1FD0020F8E7684641
:10227000FFF782FE0125FFF7B9FDFFF7ABFEFFF781
:10228000A7FD606C401C00D16664A06C401C00D1AE
:10229000A664FFF7ABFD04A9684600F053F830B11F
:1022A0002046FFF77BFA00F087F90020D8E72046A8
:1022B000FFF783F970B104F110000499FFF72AFECB
:1022C0002046FFF76BFA00F077F90028AAD1FFF754
:1022D000C3FDA7E72046FFF761FA00F06DF9A1E71B
:1022E0002DE9F04104460F4615461E46FDF740FF16
:1022F0008046A06BE16B884208D3022E06D00024F2
:102300004046FDF73CFF2046BDE8F08132463946A5
:102310002046FFF739F8A06C401C04D0A06C401C8C
:10232000A0640124ECE7606A0028FAD004F12400DC
:1023300000F014F90028F4D0002DF2D0012028601C
:10234000EFE7000070B504460D46FFF741FD104968
:10235000C8682A68531C08D02368496A8B4206D093
:102360006168814203D801240DE000240BE061681C
:10237000401A904206D2101A28602046FFF7FCFD52
:10238000002400E00124FFF731FD204670BD00006D
:10239000180000202DE9FF4F81B08246DDE90E686C
:1023A000109917469B463846FEF774FF04462B4D9E
:1023B000F4B3216B781E01EB800020F00709009731
:1023C00032462046119B0299FFF752F85A46514671
:1023D0004846FFF75FFA2060B8F1000F01D0C8F857
:1023E0000040FFF7F5FCA868401CA860286810B101
:1023F000686938B10BE02C60A868012807D1FFF7A5
:1024000059F804E02868C06AB04200D82C60A86A75
:10241000401CA862E06A2969884200D928611049F5
:1024200000EB800001EB8000211DFFF7C5FC00E000
:1024300003E00124FFF7DAFC01E04FF0FF34012C48
:1024400007D1686928B12868C06AB04201D2FFF795
:1024500003FD05B02046BDE8F08F00001800002005
:102460007C46002005484169002903D0806918B1E5
:10247000022070470020704701207047180000209C
:1024800010B5FFF7A5FC0348C468FFF7AFFC204672
:1024900010BD0000180000202DE9F04700272D4E48
:1024A000B069002805D0F069401CF0613846BDE8ED
:1024B000F087F068401CF060F5684FF0FF3975B99F
:1024C000306B716B31637063706A401C7062306B8B
:1024D0000068A0B1306BC068C0684068F062F06A04
:1024E000DFF8748085420FD3306B006850B1306BD9
:1024F000C068C4686068854210D2F06204E0C6F823
:102500002C90ECE7C6F82C903068C06A00EB800095
:1025100058F820000128C9D90127C7E7201DFFF777
:1025200013FCA06A18B104F11800FFF70DFCE06A73
:102530003169884200D9306100EB800008EB8000EF
:10254000211DFFF739FCE06A3168C96A8842CBD3A4
:102550000127C9E7180000207C46002070B5C0683C
:10256000C46804F118000646FFF7EEFB104DAA6997
:1025700052B131460F48FFF71FFCE06A2968C96A6B
:10258000884213D3012070BD201DFFF7DDFBE06AF8
:102590002969884200D92861064900EB80008C39FE
:1025A00001EB8000211DFFF707FCE6E7002070BD6E
:1025B00018000020084700202DE9F04100270025E1
:1025C000FFF706FC254EB069401EB061B069E0BB64
:1025D000B068D0B3DFF888801DE0D8F80C00C4687C
:1025E00004F11800FFF7B0FB201DFFF7ADFBE06A18
:1025F0003169884200D93061194900EB80008C397B
:1026000001EB8000211DFFF7D7FBE06A3168C96A42
:10261000884200D30125D8F800000028DDD1F069F8
:1026200038B909E0FFF738FF00B10125F069401E15
:10263000F061F0690028F5D1012D02D0306A01283F
:1026400006D101270020306200E001E0FFF704FC22
:10265000FFF7CCFB3846BDE8F081000018000020F1
:10266000084700202DE9F0470646DDF820900D468A
:1026700017469846002D13D02820FFF7C1F80446CE
:102680005CB1FEF723FE2660A561E761C4F82080F7
:10269000C4F82490201DFFF774FB2046BDE8F087A6
:1026A0000024FAE71FB50024FEF710FE0948006871
:1026B00060B100200121CDE9001002900346039093
:1026C000802205A10648FFF765FE044604B02046B7
:1026D00010BD000050000020546D7220537663003E
:1026E00089170008FEB59446089F06461A46002042
:1026F000104D2C68002C09D00091CDF804C0029632
:102700002AB1002369462046FFF7EAFDFEBDFFF728
:10271000A9FE012806D000231A4669462868FFF75B
:1027200079FDFEBD00233A4669462868FFF772FD31
:10273000FEBD0000500000205827000800000020C7
:102740007C02000066030008F82700087C020020D5
:102750000C4A0000BE0D000841E3F8431AAA01012B
:102760002C1AFF01012C1311191408F9181B08C9A0
:10277000041AA9041AE10441229CC22013930E6A90
:1027800008040120139C011B20EC401A5C081A6C01
:10279000041A84041AFC101A14081A2C041A44048B
:1027A000320163E8031AFEB42910723272FAE91892
:1027B0002AC20D091118CB9E0718592791191739EC
:1027C00018E97072C8DA20185AF4416908E97029CA
:1027D00008095E1069B8210239AA13451D1408D9E9
:1027E0001C1B08B504C13C020406102D01020304A1
:0827F0000405000607080900BA
:04000005080000ED02
:00000001FF
